{
  "contractName": "FormsApp",
  "abi": [
    {
      "inputs": [],
      "payable": false,
      "stateMutability": "nonpayable",
      "type": "constructor"
    },
    {
      "anonymous": false,
      "inputs": [
        {
          "indexed": true,
          "internalType": "uint256",
          "name": "id",
          "type": "uint256"
        },
        {
          "indexed": false,
          "internalType": "string",
          "name": "title",
          "type": "string"
        },
        {
          "indexed": false,
          "internalType": "string",
          "name": "description",
          "type": "string"
        },
        {
          "indexed": false,
          "internalType": "uint256",
          "name": "timestamp",
          "type": "uint256"
        },
        {
          "indexed": false,
          "internalType": "string",
          "name": "endTime",
          "type": "string"
        },
        {
          "indexed": false,
          "internalType": "address",
          "name": "owner",
          "type": "address"
        },
        {
          "indexed": false,
          "internalType": "bool",
          "name": "allowResponse",
          "type": "bool"
        },
        {
          "indexed": false,
          "internalType": "uint256",
          "name": "fieldsCount",
          "type": "uint256"
        },
        {
          "components": [
            {
              "internalType": "uint256",
              "name": "id",
              "type": "uint256"
            },
            {
              "internalType": "string",
              "name": "title",
              "type": "string"
            },
            {
              "internalType": "string[]",
              "name": "options",
              "type": "string[]"
            },
            {
              "internalType": "string",
              "name": "fieldType",
              "type": "string"
            }
          ],
          "indexed": false,
          "internalType": "struct FormsApp.Field[]",
          "name": "fields",
          "type": "tuple[]"
        },
        {
          "indexed": false,
          "internalType": "uint256",
          "name": "submissionsCount",
          "type": "uint256"
        }
      ],
      "name": "FormEdited",
      "type": "event"
    },
    {
      "anonymous": false,
      "inputs": [
        {
          "indexed": true,
          "internalType": "uint256",
          "name": "formId",
          "type": "uint256"
        },
        {
          "indexed": false,
          "internalType": "address",
          "name": "user",
          "type": "address"
        },
        {
          "components": [
            {
              "internalType": "address",
              "name": "user",
              "type": "address"
            },
            {
              "internalType": "uint256",
              "name": "timestamp",
              "type": "uint256"
            },
            {
              "internalType": "string[][]",
              "name": "answers",
              "type": "string[][]"
            }
          ],
          "indexed": false,
          "internalType": "struct FormsApp.Submissions",
          "name": "submission",
          "type": "tuple"
        }
      ],
      "name": "FormSubmitted",
      "type": "event"
    },
    {
      "anonymous": false,
      "inputs": [
        {
          "indexed": true,
          "internalType": "uint256",
          "name": "id",
          "type": "uint256"
        },
        {
          "indexed": false,
          "internalType": "string",
          "name": "title",
          "type": "string"
        },
        {
          "indexed": false,
          "internalType": "string",
          "name": "description",
          "type": "string"
        },
        {
          "indexed": false,
          "internalType": "uint256",
          "name": "timestamp",
          "type": "uint256"
        },
        {
          "indexed": false,
          "internalType": "string",
          "name": "endTime",
          "type": "string"
        },
        {
          "indexed": false,
          "internalType": "address",
          "name": "owner",
          "type": "address"
        },
        {
          "indexed": false,
          "internalType": "bool",
          "name": "allowResponse",
          "type": "bool"
        },
        {
          "indexed": false,
          "internalType": "uint256",
          "name": "fieldsCount",
          "type": "uint256"
        },
        {
          "components": [
            {
              "internalType": "uint256",
              "name": "id",
              "type": "uint256"
            },
            {
              "internalType": "string",
              "name": "title",
              "type": "string"
            },
            {
              "internalType": "string[]",
              "name": "options",
              "type": "string[]"
            },
            {
              "internalType": "string",
              "name": "fieldType",
              "type": "string"
            }
          ],
          "indexed": false,
          "internalType": "struct FormsApp.Field[]",
          "name": "fields",
          "type": "tuple[]"
        },
        {
          "indexed": false,
          "internalType": "uint256",
          "name": "submissionsCount",
          "type": "uint256"
        }
      ],
      "name": "NewFormCreated",
      "type": "event"
    },
    {
      "constant": true,
      "inputs": [
        {
          "internalType": "uint256",
          "name": "",
          "type": "uint256"
        },
        {
          "internalType": "uint256",
          "name": "",
          "type": "uint256"
        }
      ],
      "name": "fields",
      "outputs": [
        {
          "internalType": "uint256",
          "name": "id",
          "type": "uint256"
        },
        {
          "internalType": "string",
          "name": "title",
          "type": "string"
        },
        {
          "internalType": "string",
          "name": "fieldType",
          "type": "string"
        }
      ],
      "payable": false,
      "stateMutability": "view",
      "type": "function"
    },
    {
      "constant": true,
      "inputs": [
        {
          "internalType": "uint256",
          "name": "",
          "type": "uint256"
        }
      ],
      "name": "forms",
      "outputs": [
        {
          "internalType": "uint256",
          "name": "id",
          "type": "uint256"
        },
        {
          "internalType": "string",
          "name": "title",
          "type": "string"
        },
        {
          "internalType": "string",
          "name": "description",
          "type": "string"
        },
        {
          "internalType": "uint256",
          "name": "timestamp",
          "type": "uint256"
        },
        {
          "internalType": "string",
          "name": "endTime",
          "type": "string"
        },
        {
          "internalType": "address",
          "name": "owner",
          "type": "address"
        },
        {
          "internalType": "bool",
          "name": "allowResponse",
          "type": "bool"
        },
        {
          "internalType": "uint256",
          "name": "fieldsCount",
          "type": "uint256"
        },
        {
          "internalType": "uint256",
          "name": "submissionsCount",
          "type": "uint256"
        }
      ],
      "payable": false,
      "stateMutability": "view",
      "type": "function"
    },
    {
      "constant": true,
      "inputs": [],
      "name": "formsCount",
      "outputs": [
        {
          "internalType": "uint256",
          "name": "",
          "type": "uint256"
        }
      ],
      "payable": false,
      "stateMutability": "view",
      "type": "function"
    },
    {
      "constant": true,
      "inputs": [],
      "name": "name",
      "outputs": [
        {
          "internalType": "string",
          "name": "",
          "type": "string"
        }
      ],
      "payable": false,
      "stateMutability": "view",
      "type": "function"
    },
    {
      "constant": true,
      "inputs": [
        {
          "internalType": "uint256",
          "name": "",
          "type": "uint256"
        },
        {
          "internalType": "uint256",
          "name": "",
          "type": "uint256"
        }
      ],
      "name": "submissions",
      "outputs": [
        {
          "internalType": "address",
          "name": "user",
          "type": "address"
        },
        {
          "internalType": "uint256",
          "name": "timestamp",
          "type": "uint256"
        }
      ],
      "payable": false,
      "stateMutability": "view",
      "type": "function"
    },
    {
      "constant": false,
      "inputs": [
        {
          "internalType": "string",
          "name": "_title",
          "type": "string"
        },
        {
          "internalType": "string",
          "name": "_description",
          "type": "string"
        },
        {
          "internalType": "string",
          "name": "_endTime",
          "type": "string"
        },
        {
          "internalType": "bool",
          "name": "_allowResponse",
          "type": "bool"
        },
        {
          "internalType": "uint256",
          "name": "_fieldsCount",
          "type": "uint256"
        },
        {
          "components": [
            {
              "internalType": "uint256",
              "name": "id",
              "type": "uint256"
            },
            {
              "internalType": "string",
              "name": "title",
              "type": "string"
            },
            {
              "internalType": "string[]",
              "name": "options",
              "type": "string[]"
            },
            {
              "internalType": "string",
              "name": "fieldType",
              "type": "string"
            }
          ],
          "internalType": "struct FormsApp.Field[]",
          "name": "_fields",
          "type": "tuple[]"
        }
      ],
      "name": "createForm",
      "outputs": [],
      "payable": false,
      "stateMutability": "nonpayable",
      "type": "function"
    },
    {
      "constant": false,
      "inputs": [
        {
          "internalType": "uint256",
          "name": "_formId",
          "type": "uint256"
        },
        {
          "internalType": "string",
          "name": "_title",
          "type": "string"
        },
        {
          "internalType": "string",
          "name": "_description",
          "type": "string"
        },
        {
          "internalType": "string",
          "name": "_endTime",
          "type": "string"
        },
        {
          "internalType": "bool",
          "name": "_allowResponse",
          "type": "bool"
        },
        {
          "internalType": "uint256",
          "name": "_fieldsCount",
          "type": "uint256"
        },
        {
          "components": [
            {
              "internalType": "uint256",
              "name": "id",
              "type": "uint256"
            },
            {
              "internalType": "string",
              "name": "title",
              "type": "string"
            },
            {
              "internalType": "string[]",
              "name": "options",
              "type": "string[]"
            },
            {
              "internalType": "string",
              "name": "fieldType",
              "type": "string"
            }
          ],
          "internalType": "struct FormsApp.Field[]",
          "name": "_fields",
          "type": "tuple[]"
        }
      ],
      "name": "editForm",
      "outputs": [],
      "payable": false,
      "stateMutability": "nonpayable",
      "type": "function"
    },
    {
      "constant": false,
      "inputs": [
        {
          "internalType": "uint256",
          "name": "_formId",
          "type": "uint256"
        },
        {
          "components": [
            {
              "internalType": "uint256",
              "name": "id",
              "type": "uint256"
            },
            {
              "internalType": "string",
              "name": "title",
              "type": "string"
            },
            {
              "internalType": "string[]",
              "name": "options",
              "type": "string[]"
            },
            {
              "internalType": "string",
              "name": "fieldType",
              "type": "string"
            }
          ],
          "internalType": "struct FormsApp.Field[]",
          "name": "_fields",
          "type": "tuple[]"
        }
      ],
      "name": "submitForm",
      "outputs": [],
      "payable": false,
      "stateMutability": "nonpayable",
      "type": "function"
    },
    {
      "constant": true,
      "inputs": [],
      "name": "getForms",
      "outputs": [
        {
          "components": [
            {
              "internalType": "uint256",
              "name": "id",
              "type": "uint256"
            },
            {
              "internalType": "string",
              "name": "title",
              "type": "string"
            },
            {
              "internalType": "string",
              "name": "description",
              "type": "string"
            },
            {
              "internalType": "uint256",
              "name": "timestamp",
              "type": "uint256"
            },
            {
              "internalType": "string",
              "name": "endTime",
              "type": "string"
            },
            {
              "internalType": "address",
              "name": "owner",
              "type": "address"
            },
            {
              "internalType": "bool",
              "name": "allowResponse",
              "type": "bool"
            },
            {
              "internalType": "uint256",
              "name": "fieldsCount",
              "type": "uint256"
            },
            {
              "internalType": "uint256",
              "name": "submissionsCount",
              "type": "uint256"
            }
          ],
          "internalType": "struct FormsApp.Form[]",
          "name": "",
          "type": "tuple[]"
        }
      ],
      "payable": false,
      "stateMutability": "view",
      "type": "function"
    },
    {
      "constant": true,
      "inputs": [
        {
          "internalType": "uint256",
          "name": "_formId",
          "type": "uint256"
        }
      ],
      "name": "getFields",
      "outputs": [
        {
          "components": [
            {
              "internalType": "uint256",
              "name": "id",
              "type": "uint256"
            },
            {
              "internalType": "string",
              "name": "title",
              "type": "string"
            },
            {
              "internalType": "string[]",
              "name": "options",
              "type": "string[]"
            },
            {
              "internalType": "string",
              "name": "fieldType",
              "type": "string"
            }
          ],
          "internalType": "struct FormsApp.Field[]",
          "name": "",
          "type": "tuple[]"
        }
      ],
      "payable": false,
      "stateMutability": "view",
      "type": "function"
    }
  ],
  "bytecode": "0x60806040523480156200001157600080fd5b506040518060400160405280600881526020017f466f726d73417070000000000000000000000000000000000000000000000000815250600090805190602001906200005f9291906200006e565b5060006002819055506200011d565b828054600181600116156101000203166002900490600052602060002090601f016020900481019282601f10620000b157805160ff1916838001178555620000e2565b82800160010185558215620000e2579182015b82811115620000e1578251825591602001919060010190620000c4565b5b509050620000f19190620000f5565b5090565b6200011a91905b8082111562000116576000816000905550600101620000fc565b5090565b90565b613a3f806200012d6000396000f3fe608060405234801561001057600080fd5b506004361061009e5760003560e01c80638c10e904116100665780638c10e90414610176578063c56ad1a514610192578063c5e6e689146101b0578063e19b4fae146101ce578063e420a82a146102005761009e565b806306fdde03146100a35780630f0cb228146100c157806318c864e3146100f157806367bc5da71461012957806369c1fc2514610145575b600080fd5b6100ab61021c565b6040516100b891906132f2565b60405180910390f35b6100db60048036036100d691908101906128b0565b6102ba565b6040516100e891906132ae565b60405180910390f35b61010b600480360361010691908101906128b0565b610857565b604051610120999897969594939291906135a6565b60405180910390f35b610143600480360361013e919081019061292d565b610a9a565b005b61015f600480360361015a9190810190612a2b565b6112a0565b60405161016d929190613285565b60405180910390f35b610190600480360361018b91908101906127c7565b6112f1565b005b61019a6117f6565b6040516101a79190613546565b60405180910390f35b6101b86117fc565b6040516101c591906132d0565b60405180910390f35b6101e860048036036101e39190810190612a2b565b611bce565b6040516101f793929190613561565b60405180910390f35b61021a600480360361021591908101906128d9565b611d35565b005b60008054600181600116156101000203166002900480601f0160208091040260200160405190810160405280929190818152602001828054600181600116156101000203166002900480156102b25780601f10610287576101008083540402835291602001916102b2565b820191906000526020600020905b81548152906001019060200180831161029557829003601f168201915b505050505081565b60606102c4612204565b600360008481526020019081526020016000206040518061012001604052908160008201548152602001600182018054600181600116156101000203166002900480601f0160208091040260200160405190810160405280929190818152602001828054600181600116156101000203166002900480156103865780601f1061035b57610100808354040283529160200191610386565b820191906000526020600020905b81548152906001019060200180831161036957829003601f168201915b50505050508152602001600282018054600181600116156101000203166002900480601f0160208091040260200160405190810160405280929190818152602001828054600181600116156101000203166002900480156104285780601f106103fd57610100808354040283529160200191610428565b820191906000526020600020905b81548152906001019060200180831161040b57829003601f168201915b5050505050815260200160038201548152602001600482018054600181600116156101000203166002900480601f0160208091040260200160405190810160405280929190818152602001828054600181600116156101000203166002900480156104d45780601f106104a9576101008083540402835291602001916104d4565b820191906000526020600020905b8154815290600101906020018083116104b757829003601f168201915b505050505081526020016005820160009054906101000a900473ffffffffffffffffffffffffffffffffffffffff1673ffffffffffffffffffffffffffffffffffffffff1673ffffffffffffffffffffffffffffffffffffffff1681526020016005820160149054906101000a900460ff1615151515815260200160068201548152602001600782015481525050905060008160e0015190506060816040519080825280602002602001820160405280156105a957816020015b610596612268565b81526020019060019003908161058e5790505b5090506000600190505b82811161084b576004600085600001518152602001908152602001600020600082815260200190815260200160002060405180608001604052908160008201548152602001600182018054600181600116156101000203166002900480601f0160208091040260200160405190810160405280929190818152602001828054600181600116156101000203166002900480156106905780601f1061066557610100808354040283529160200191610690565b820191906000526020600020905b81548152906001019060200180831161067357829003601f168201915b5050505050815260200160028201805480602002602001604051908101604052809291908181526020016000905b8282101561077a578382906000526020600020018054600181600116156101000203166002900480601f0160208091040260200160405190810160405280929190818152602001828054600181600116156101000203166002900480156107665780601f1061073b57610100808354040283529160200191610766565b820191906000526020600020905b81548152906001019060200180831161074957829003601f168201915b5050505050815260200190600101906106be565b505050508152602001600382018054600181600116156101000203166002900480601f01602080910402602001604051908101604052809291908181526020018280546001816001161561010002031660029004801561081b5780601f106107f05761010080835404028352916020019161081b565b820191906000526020600020905b8154815290600101906020018083116107fe57829003601f168201915b50505050508152505082600183038151811061083357fe5b602002602001018190525080806001019150506105b3565b50809350505050919050565b6003602052806000526040600020600091509050806000015490806001018054600181600116156101000203166002900480601f0160208091040260200160405190810160405280929190818152602001828054600181600116156101000203166002900480156109095780601f106108de57610100808354040283529160200191610909565b820191906000526020600020905b8154815290600101906020018083116108ec57829003601f168201915b505050505090806002018054600181600116156101000203166002900480601f0160208091040260200160405190810160405280929190818152602001828054600181600116156101000203166002900480156109a75780601f1061097c576101008083540402835291602001916109a7565b820191906000526020600020905b81548152906001019060200180831161098a57829003601f168201915b505050505090806003015490806004018054600181600116156101000203166002900480601f016020809104026020016040519081016040528092919081815260200182805460018160011615610100020316600290048015610a4b5780601f10610a2057610100808354040283529160200191610a4b565b820191906000526020600020905b815481529060010190602001808311610a2e57829003601f168201915b5050505050908060050160009054906101000a900473ffffffffffffffffffffffffffffffffffffffff16908060050160149054906101000a900460ff16908060060154908060070154905089565b60008711610add576040517f08c379a0000000000000000000000000000000000000000000000000000000008152600401610ad490613486565b60405180910390fd5b6000865111610b21576040517f08c379a0000000000000000000000000000000000000000000000000000000008152600401610b18906134a6565b60405180910390fd5b6000855111610b65576040517f08c379a0000000000000000000000000000000000000000000000000000000008152600401610b5c90613466565b60405180910390fd5b6000845111610ba9576040517f08c379a0000000000000000000000000000000000000000000000000000000008152600401610ba0906134c6565b60405180910390fd5b6000815111610bed576040517f08c379a0000000000000000000000000000000000000000000000000000000008152600401610be490613526565b60405180910390fd5b610bf5612204565b600360008981526020019081526020016000206040518061012001604052908160008201548152602001600182018054600181600116156101000203166002900480601f016020809104026020016040519081016040528092919081815260200182805460018160011615610100020316600290048015610cb75780601f10610c8c57610100808354040283529160200191610cb7565b820191906000526020600020905b815481529060010190602001808311610c9a57829003601f168201915b50505050508152602001600282018054600181600116156101000203166002900480601f016020809104026020016040519081016040528092919081815260200182805460018160011615610100020316600290048015610d595780601f10610d2e57610100808354040283529160200191610d59565b820191906000526020600020905b815481529060010190602001808311610d3c57829003601f168201915b5050505050815260200160038201548152602001600482018054600181600116156101000203166002900480601f016020809104026020016040519081016040528092919081815260200182805460018160011615610100020316600290048015610e055780601f10610dda57610100808354040283529160200191610e05565b820191906000526020600020905b815481529060010190602001808311610de857829003601f168201915b505050505081526020016005820160009054906101000a900473ffffffffffffffffffffffffffffffffffffffff1673ffffffffffffffffffffffffffffffffffffffff1673ffffffffffffffffffffffffffffffffffffffff1681526020016005820160149054906101000a900460ff161515151581526020016006820154815260200160078201548152505090503373ffffffffffffffffffffffffffffffffffffffff168160a0015173ffffffffffffffffffffffffffffffffffffffff1614610f07576040517f08c379a0000000000000000000000000000000000000000000000000000000008152600401610efe906134e6565b60405180910390fd5b6040518061012001604052808981526020018881526020018781526020014281526020018681526020013373ffffffffffffffffffffffffffffffffffffffff168152602001851515815260200184815260200182610100015181525090506000600190505b8251811161114a576060836001830381518110610f8657fe5b60200260200101516040015151604051908082528060200260200182016040528015610fc657816020015b6060815260200190600190039081610fb15790505b50905060008090505b846001840381518110610fde57fe5b602002602001015160400151518110156110445784600184038151811061100157fe5b602002602001015160400151818151811061101857fe5b602002602001015182828151811061102c57fe5b60200260200101819052508080600101915050610fcf565b50604051806080016040528085600185038151811061105f57fe5b602002602001015160000151815260200185600185038151811061107f57fe5b60200260200101516020015181526020018281526020018560018503815181106110a557fe5b602002602001015160600151815250600460008c815260200190815260200160002060008481526020019081526020016000206000820151816000015560208201518160010190805190602001906110fe929190612290565b50604082015181600201908051906020019061111b929190612310565b506060820151816003019080519060200190611138929190612290565b50905050508080600101915050610f6d565b5080600360008a8152602001908152602001600020600082015181600001556020820151816001019080519060200190611185929190612290565b5060408201518160020190805190602001906111a2929190612290565b506060820151816003015560808201518160040190805190602001906111c9929190612290565b5060a08201518160050160006101000a81548173ffffffffffffffffffffffffffffffffffffffff021916908373ffffffffffffffffffffffffffffffffffffffff16021790555060c08201518160050160146101000a81548160ff02191690831515021790555060e082015181600601556101008201518160070155905050877fb22a62001d0a307d5adc64b50a36055968e18b67edb9245b20b8705b88be9fc688884289338a8a8a8a610100015160405161128e999897969594939291906133bd565b60405180910390a25050505050505050565b6005602052816000526040600020602052806000526040600020600091509150508060000160009054906101000a900473ffffffffffffffffffffffffffffffffffffffff16908060010154905082565b6000865111611335576040517f08c379a000000000000000000000000000000000000000000000000000000000815260040161132c906134a6565b60405180910390fd5b6000855111611379576040517f08c379a000000000000000000000000000000000000000000000000000000000815260040161137090613466565b60405180910390fd5b60008451116113bd576040517f08c379a00000000000000000000000000000000000000000000000000000000081526004016113b4906134c6565b60405180910390fd5b6000815111611401576040517f08c379a00000000000000000000000000000000000000000000000000000000081526004016113f890613526565b60405180910390fd5b600260008154809291906001019190505550600160003373ffffffffffffffffffffffffffffffffffffffff1673ffffffffffffffffffffffffffffffffffffffff1681526020019081526020016000206000815480929190600101919050555060405180610120016040528060025481526020018781526020018681526020014281526020018581526020013373ffffffffffffffffffffffffffffffffffffffff168152602001841515815260200183815260200160008152506003600060025481526020019081526020016000206000820151816000015560208201518160010190805190602001906114f8929190612290565b506040820151816002019080519060200190611515929190612290565b5060608201518160030155608082015181600401908051906020019061153c929190612290565b5060a08201518160050160006101000a81548173ffffffffffffffffffffffffffffffffffffffff021916908373ffffffffffffffffffffffffffffffffffffffff16021790555060c08201518160050160146101000a81548160ff02191690831515021790555060e0820151816006015561010082015181600701559050506000600190505b815181116117a25760608260018303815181106115dc57fe5b6020026020010151604001515160405190808252806020026020018201604052801561161c57816020015b60608152602001906001900390816116075790505b50905060008090505b83600184038151811061163457fe5b6020026020010151604001515181101561169a5783600184038151811061165757fe5b602002602001015160400151818151811061166e57fe5b602002602001015182828151811061168257fe5b60200260200101819052508080600101915050611625565b5060405180608001604052808460018503815181106116b557fe5b60200260200101516000015181526020018460018503815181106116d557fe5b60200260200101516020015181526020018281526020018460018503815181106116fb57fe5b6020026020010151606001518152506004600060025481526020019081526020016000206000848152602001908152602001600020600082015181600001556020820151816001019080519060200190611756929190612290565b506040820151816002019080519060200190611773929190612310565b506060820151816003019080519060200190611790929190612290565b509050505080806001019150506115c3565b506002547f067031859f298b279580b64ec4be5b29ced6838d43dfafb25562734c797a5d13878742883389898960006040516117e699989796959493929190613314565b60405180910390a2505050505050565b60025481565b606080600160003373ffffffffffffffffffffffffffffffffffffffff1673ffffffffffffffffffffffffffffffffffffffff1681526020019081526020016000205460405190808252806020026020018201604052801561187857816020015b611865612370565b81526020019060019003908161185d5790505b50905060008090506000600190505b6002548111611bc5573373ffffffffffffffffffffffffffffffffffffffff166003600083815260200190815260200160002060050160009054906101000a900473ffffffffffffffffffffffffffffffffffffffff1673ffffffffffffffffffffffffffffffffffffffff161415611bb857600360008281526020019081526020016000206040518061012001604052908160008201548152602001600182018054600181600116156101000203166002900480601f0160208091040260200160405190810160405280929190818152602001828054600181600116156101000203166002900480156119bc5780601f10611991576101008083540402835291602001916119bc565b820191906000526020600020905b81548152906001019060200180831161199f57829003601f168201915b50505050508152602001600282018054600181600116156101000203166002900480601f016020809104026020016040519081016040528092919081815260200182805460018160011615610100020316600290048015611a5e5780601f10611a3357610100808354040283529160200191611a5e565b820191906000526020600020905b815481529060010190602001808311611a4157829003601f168201915b5050505050815260200160038201548152602001600482018054600181600116156101000203166002900480601f016020809104026020016040519081016040528092919081815260200182805460018160011615610100020316600290048015611b0a5780601f10611adf57610100808354040283529160200191611b0a565b820191906000526020600020905b815481529060010190602001808311611aed57829003601f168201915b505050505081526020016005820160009054906101000a900473ffffffffffffffffffffffffffffffffffffffff1673ffffffffffffffffffffffffffffffffffffffff1673ffffffffffffffffffffffffffffffffffffffff1681526020016005820160149054906101000a900460ff1615151515815260200160068201548152602001600782015481525050838381518110611ba457fe5b602002602001018190525081806001019250505b8080600101915050611887565b50819250505090565b600460205281600052604060002060205280600052604060002060009150915050806000015490806001018054600181600116156101000203166002900480601f016020809104026020016040519081016040528092919081815260200182805460018160011615610100020316600290048015611c8d5780601f10611c6257610100808354040283529160200191611c8d565b820191906000526020600020905b815481529060010190602001808311611c7057829003601f168201915b505050505090806003018054600181600116156101000203166002900480601f016020809104026020016040519081016040528092919081815260200182805460018160011615610100020316600290048015611d2b5780601f10611d0057610100808354040283529160200191611d2b565b820191906000526020600020905b815481529060010190602001808311611d0e57829003601f168201915b5050505050905083565b60008211611d78576040517f08c379a0000000000000000000000000000000000000000000000000000000008152600401611d6f90613486565b60405180910390fd5b60006003600084815260200190815260200160002090508060050160149054906101000a900460ff16611de0576040517f08c379a0000000000000000000000000000000000000000000000000000000008152600401611dd790613506565b60405180910390fd5b600081600701600081546001019190508190559050611dfd6123d4565b6005600086815260200190815260200160002060008381526020019081526020016000206040518060600160405290816000820160009054906101000a900473ffffffffffffffffffffffffffffffffffffffff1673ffffffffffffffffffffffffffffffffffffffff1673ffffffffffffffffffffffffffffffffffffffff1681526020016001820154815260200160028201805480602002602001604051908101604052809291908181526020016000905b82821015611fb457838290600052602060002001805480602002602001604051908101604052809291908181526020016000905b82821015611fa1578382906000526020600020018054600181600116156101000203166002900480601f016020809104026020016040519081016040528092919081815260200182805460018160011615610100020316600290048015611f8d5780601f10611f6257610100808354040283529160200191611f8d565b820191906000526020600020905b815481529060010190602001808311611f7057829003601f168201915b505050505081526020019060010190611ee5565b5050505081526020019060010190611eb1565b5050505081525050905060008090505b83600601548110156120d557846001820381518110611fdf57fe5b6020026020010151604001515160405190808252806020026020018201604052801561201f57816020015b606081526020019060019003908161200a5790505b508260400151828151811061203057fe5b602002602001018190525060008090505b85828151811061204d57fe5b602002602001015160400151518110156120c75785828151811061206d57fe5b602002602001015160400151818151811061208457fe5b60200260200101518360400151838151811061209c57fe5b602002602001015182815181106120af57fe5b60200260200101819052508080600101915050612041565b508080600101915050611fc4565b5060405180606001604052803373ffffffffffffffffffffffffffffffffffffffff168152602001428152602001826040015181525060056000878152602001908152602001600020600084815260200190815260200160002060008201518160000160006101000a81548173ffffffffffffffffffffffffffffffffffffffff021916908373ffffffffffffffffffffffffffffffffffffffff16021790555060208201518160010155604082015181600201908051906020019061219c92919061240b565b50905050847f72a463240677128984b23f8067221ac2f38af9426b066ac721675dbd11f24f8c336005600089815260200190815260200160002060008681526020019081526020016000206040516121f5929190613255565b60405180910390a25050505050565b6040518061012001604052806000815260200160608152602001606081526020016000815260200160608152602001600073ffffffffffffffffffffffffffffffffffffffff16815260200160001515815260200160008152602001600081525090565b6040518060800160405280600081526020016060815260200160608152602001606081525090565b828054600181600116156101000203166002900490600052602060002090601f016020900481019282601f106122d157805160ff19168380011785556122ff565b828001600101855582156122ff579182015b828111156122fe5782518255916020019190600101906122e3565b5b50905061230c919061246b565b5090565b82805482825590600052602060002090810192821561235f579160200282015b8281111561235e57825182908051906020019061234e929190612290565b5091602001919060010190612330565b5b50905061236c9190612490565b5090565b6040518061012001604052806000815260200160608152602001606081526020016000815260200160608152602001600073ffffffffffffffffffffffffffffffffffffffff16815260200160001515815260200160008152602001600081525090565b6040518060600160405280600073ffffffffffffffffffffffffffffffffffffffff16815260200160008152602001606081525090565b82805482825590600052602060002090810192821561245a579160200282015b82811115612459578251829080519060200190612449929190612310565b509160200191906001019061242b565b5b50905061246791906124bc565b5090565b61248d91905b80821115612489576000816000905550600101612471565b5090565b90565b6124b991905b808211156124b557600081816124ac91906124e8565b50600101612496565b5090565b90565b6124e591905b808211156124e157600081816124d89190612530565b506001016124c2565b5090565b90565b50805460018160011615610100020316600290046000825580601f1061250e575061252d565b601f01602090049060005260206000209081019061252c919061246b565b5b50565b508054600082559060005260206000209081019061254e9190612490565b50565b600082601f83011261256257600080fd5b813561257561257082613675565b613648565b9150818183526020840193506020810190508360005b838110156125bb57813586016125a1888261264e565b84526020840193506020830192505060018101905061258b565b5050505092915050565b600082601f8301126125d657600080fd5b81356125e96125e48261369d565b613648565b9150818183526020840193506020810190508360005b8381101561262f578135860161261588826126f6565b8452602084019350602083019250506001810190506125ff565b5050505092915050565b600081359050612648816139ce565b92915050565b600082601f83011261265f57600080fd5b813561267261266d826136c5565b613648565b9150808252602083016020830185838301111561268e57600080fd5b61269983828461393a565b50505092915050565b600082601f8301126126b357600080fd5b81356126c66126c1826136f1565b613648565b915080825260208301602083018583830111156126e257600080fd5b6126ed83828461393a565b50505092915050565b60006080828403121561270857600080fd5b6127126080613648565b90506000612722848285016127b2565b600083015250602082013567ffffffffffffffff81111561274257600080fd5b61274e8482850161264e565b602083015250604082013567ffffffffffffffff81111561276e57600080fd5b61277a84828501612551565b604083015250606082013567ffffffffffffffff81111561279a57600080fd5b6127a68482850161264e565b60608301525092915050565b6000813590506127c1816139e5565b92915050565b60008060008060008060c087890312156127e057600080fd5b600087013567ffffffffffffffff8111156127fa57600080fd5b61280689828a016126a2565b965050602087013567ffffffffffffffff81111561282357600080fd5b61282f89828a016126a2565b955050604087013567ffffffffffffffff81111561284c57600080fd5b61285889828a016126a2565b945050606061286989828a01612639565b935050608061287a89828a016127b2565b92505060a087013567ffffffffffffffff81111561289757600080fd5b6128a389828a016125c5565b9150509295509295509295565b6000602082840312156128c257600080fd5b60006128d0848285016127b2565b91505092915050565b600080604083850312156128ec57600080fd5b60006128fa858286016127b2565b925050602083013567ffffffffffffffff81111561291757600080fd5b612923858286016125c5565b9150509250929050565b600080600080600080600060e0888a03121561294857600080fd5b60006129568a828b016127b2565b975050602088013567ffffffffffffffff81111561297357600080fd5b61297f8a828b016126a2565b965050604088013567ffffffffffffffff81111561299c57600080fd5b6129a88a828b016126a2565b955050606088013567ffffffffffffffff8111156129c557600080fd5b6129d18a828b016126a2565b94505060806129e28a828b01612639565b93505060a06129f38a828b016127b2565b92505060c088013567ffffffffffffffff811115612a1057600080fd5b612a1c8a828b016125c5565b91505092959891949750929550565b60008060408385031215612a3e57600080fd5b6000612a4c858286016127b2565b9250506020612a5d858286016127b2565b9150509250929050565b6000612a738383612be1565b905092915050565b6000612a878383612da5565b905092915050565b6000612a9b8383612e17565b905092915050565b6000612aaf838361308c565b905092915050565b6000612ac383836130fd565b905092915050565b612ad4816138f2565b82525050565b612ae3816138aa565b82525050565b612af2816138aa565b82525050565b6000612b038261378c565b612b0d818561381a565b935083602082028501612b1f8561371d565b8060005b85811015612b5a57848403895281612b3b8582612a67565b9450612b46836137d9565b925060208a01995050600181019050612b23565b50829750879550505050505092915050565b6000612b7782613797565b612b81818561382b565b935083602082028501612b9385613732565b8060005b85811015612bcf5784840389528151612bb08582612a7b565b9450612bbb836137e6565b925060208a01995050600181019050612b97565b50829750879550505050505092915050565b6000612bec826137a2565b612bf6818561382b565b935083602082028501612c0885613742565b8060005b85811015612c4357848403895281612c248582612a8f565b9450612c2f836137f3565b925060208a01995050600181019050612c0c565b50829750879550505050505092915050565b6000612c60826137ad565b612c6a818561383c565b935083602082028501612c7c85613757565b8060005b85811015612cb85784840389528151612c998582612aa3565b9450612ca483613800565b925060208a01995050600181019050612c80565b50829750879550505050505092915050565b6000612cd5826137b8565b612cdf818561384d565b935083602082028501612cf185613767565b8060005b85811015612d2d5784840389528151612d0e8582612ab7565b9450612d198361380d565b925060208a01995050600181019050612cf5565b50829750879550505050505092915050565b612d48816138bc565b82525050565b612d57816138bc565b82525050565b612d6681613904565b82525050565b6000612d77826137ce565b612d81818561386f565b9350612d91818560208601613949565b612d9a816139b0565b840191505092915050565b6000612db0826137c3565b612dba818561385e565b9350612dca818560208601613949565b612dd3816139b0565b840191505092915050565b6000612de9826137c3565b612df3818561386f565b9350612e03818560208601613949565b612e0c816139b0565b840191505092915050565b600081546001811660008114612e345760018114612e5a57612e9e565b607f6002830416612e45818761385e565b955060ff198316865260208601935050612e9e565b60028204612e68818761385e565b9550612e7385613777565b60005b82811015612e9557815481890152600182019150602081019050612e76565b80880195505050505b505092915050565b6000612eb3601d8361386f565b91507f466f726d206465736372697074696f6e206973207265717572696564210000006000830152602082019050919050565b6000612ef360138361386f565b91507f466f726d20494420697320696e76616c696421000000000000000000000000006000830152602082019050919050565b6000612f3360178361386f565b91507f466f726d207469746c65206973207265717572696564210000000000000000006000830152602082019050919050565b6000612f73601a8361386f565b91507f466f726d20656e642074696d65206973207265717572696564210000000000006000830152602082019050919050565b6000612fb360148361386f565b91507f556e617574686f72697a656420416363657373210000000000000000000000006000830152602082019050919050565b6000612ff360308361386f565b91507f5468697320666f726d206973206e6f742074616b696e6720746865207265737060008301527f6f6e73657320616e796d6f72652e2e2e000000000000000000000000000000006020830152604082019050919050565b6000613059601d8361386f565b91507f466f726d206e656564732061746c65617374206f6e65206669656c64210000006000830152602082019050919050565b60006080830160008301516130a46000860182613237565b50602083015184820360208601526130bc8282612da5565b915050604083015184820360408601526130d68282612b6c565b915050606083015184820360608601526130f08282612da5565b9150508091505092915050565b6000610120830160008301516131166000860182613237565b506020830151848203602086015261312e8282612da5565b915050604083015184820360408601526131488282612da5565b915050606083015161315d6060860182613237565b50608083015184820360808601526131758282612da5565b91505060a083015161318a60a0860182612ada565b5060c083015161319d60c0860182612d3f565b5060e08301516131b060e0860182613237565b506101008301516131c5610100860182613237565b508091505092915050565b60006060830160008084015490506131e78161397c565b6131f46000870182612ada565b506001840154905061320581613996565b6132126020870182613237565b506002840185830360408701526132298382612af8565b925050819250505092915050565b613240816138e8565b82525050565b61324f816138e8565b82525050565b600060408201905061326a6000830185612acb565b818103602083015261327c81846131d0565b90509392505050565b600060408201905061329a6000830185612ae9565b6132a76020830184613246565b9392505050565b600060208201905081810360008301526132c88184612c55565b905092915050565b600060208201905081810360008301526132ea8184612cca565b905092915050565b6000602082019050818103600083015261330c8184612dde565b905092915050565b600061012082019050818103600083015261332f818c612d6c565b90508181036020830152613343818b612d6c565b9050613352604083018a613246565b81810360608301526133648189612d6c565b90506133736080830188612acb565b61338060a0830187612d4e565b61338d60c0830186613246565b81810360e083015261339f8185612c55565b90506133af610100830184612d5d565b9a9950505050505050505050565b60006101208201905081810360008301526133d8818c612d6c565b905081810360208301526133ec818b612d6c565b90506133fb604083018a613246565b818103606083015261340d8189612d6c565b905061341c6080830188612acb565b61342960a0830187612d4e565b61343660c0830186613246565b81810360e08301526134488185612c55565b9050613458610100830184613246565b9a9950505050505050505050565b6000602082019050818103600083015261347f81612ea6565b9050919050565b6000602082019050818103600083015261349f81612ee6565b9050919050565b600060208201905081810360008301526134bf81612f26565b9050919050565b600060208201905081810360008301526134df81612f66565b9050919050565b600060208201905081810360008301526134ff81612fa6565b9050919050565b6000602082019050818103600083015261351f81612fe6565b9050919050565b6000602082019050818103600083015261353f8161304c565b9050919050565b600060208201905061355b6000830184613246565b92915050565b60006060820190506135766000830186613246565b81810360208301526135888185612dde565b9050818103604083015261359c8184612dde565b9050949350505050565b6000610120820190506135bc600083018c613246565b81810360208301526135ce818b612dde565b905081810360408301526135e2818a612dde565b90506135f16060830189613246565b81810360808301526136038188612dde565b905061361260a0830187612ae9565b61361f60c0830186612d4e565b61362c60e0830185613246565b61363a610100830184613246565b9a9950505050505050505050565b6000604051905081810181811067ffffffffffffffff8211171561366b57600080fd5b8060405250919050565b600067ffffffffffffffff82111561368c57600080fd5b602082029050602081019050919050565b600067ffffffffffffffff8211156136b457600080fd5b602082029050602081019050919050565b600067ffffffffffffffff8211156136dc57600080fd5b601f19601f8301169050602081019050919050565b600067ffffffffffffffff82111561370857600080fd5b601f19601f8301169050602081019050919050565b60008190508160005260206000209050919050565b6000819050602082019050919050565b60008190508160005260206000209050919050565b6000819050602082019050919050565b6000819050602082019050919050565b60008190508160005260206000209050919050565b600081549050919050565b600081519050919050565b600081549050919050565b600081519050919050565b600081519050919050565b600081519050919050565b600081519050919050565b6000600182019050919050565b6000602082019050919050565b6000600182019050919050565b6000602082019050919050565b6000602082019050919050565b600082825260208201905092915050565b600082825260208201905092915050565b600082825260208201905092915050565b600082825260208201905092915050565b600082825260208201905092915050565b600082825260208201905092915050565b600073ffffffffffffffffffffffffffffffffffffffff82169050919050565b6000819050919050565b60006138b5826138c8565b9050919050565b60008115159050919050565b600073ffffffffffffffffffffffffffffffffffffffff82169050919050565b6000819050919050565b60006138fd82613916565b9050919050565b600061390f826138e8565b9050919050565b600061392182613928565b9050919050565b6000613933826138c8565b9050919050565b82818337600083830152505050565b60005b8381101561396757808201518184015260208101905061394c565b83811115613976576000848401525b50505050565b600061398f61398a836139c1565b613880565b9050919050565b60006139a96139a4836139c1565b6138a0565b9050919050565b6000601f19601f8301169050919050565b60008160001c9050919050565b6139d7816138bc565b81146139e257600080fd5b50565b6139ee816138e8565b81146139f957600080fd5b5056fea365627a7a723158207032f5617926074e4a62f2c50fb6c8f1ef8075b770616c73c82a7526aaa668f96c6578706572696d656e74616cf564736f6c63430005100040",
  "source": "pragma solidity ^0.5.0;\r\npragma experimental ABIEncoderV2;\r\n\r\ncontract FormsApp{\r\n\tstring public name;\r\n\r\n\t// Store forms...\r\n\tmapping(address=>uint)\tuserFormCount;\r\n\r\n\tuint public formsCount;\r\n\tmapping(uint => Form) public forms;\r\n\r\n\tstruct Form{\r\n\t\tuint id;\r\n\t\tstring title;\r\n\t\tstring description;\r\n\t\tuint timestamp;\r\n\t\tstring endTime;\r\n\t\taddress owner;\r\n\t\tbool allowResponse;\r\n\t\tuint fieldsCount;\r\n\t\tuint submissionsCount;\r\n\t}\r\n\r\n\t// Store fields...\r\n\tmapping(uint => mapping(uint => Field)) public fields; // formId=>Field\r\n\r\n\tstruct Field{\r\n\t\tuint id;\r\n\t\tstring title;\r\n\t\tstring[] options;\r\n\t\tstring fieldType;\r\n\t}\r\n\r\n\t// Store submissions...\r\n\tmapping(uint => mapping(uint => Submissions)) public submissions; // formId=>Submission\r\n\r\n\tstruct Submissions{\r\n\t\taddress user;\r\n\t\tuint timestamp;\r\n\t\tstring[][] answers;\r\n\t\t// Field[] fields;\r\n\t}\r\n\t\r\n\tevent NewFormCreated(uint indexed id, string title, string description, uint timestamp, string endTime, address owner, bool allowResponse, uint fieldsCount, Field[] fields, uint submissionsCount);\r\n\tevent FormEdited(uint indexed id, string title, string description, uint timestamp, string endTime, address owner, bool allowResponse, uint fieldsCount, Field[] fields, uint submissionsCount);\r\n\tevent FormSubmitted(uint indexed formId, address user, Submissions submission);\r\n\r\n\tconstructor() public{\r\n\t\tname = \"FormsApp\";\r\n\t\t\r\n\t\tformsCount=0;\r\n\t}\r\n\r\n\tfunction createForm(string memory _title, string memory _description, string memory _endTime, bool _allowResponse, uint _fieldsCount, Field[] memory _fields) public {\r\n\t\trequire(bytes(_title).length>0, \"Form title is requried!\");\r\n\t\trequire(bytes(_description).length>0, \"Form description is requried!\");\r\n\t\trequire(bytes(_endTime).length>0, \"Form end time is requried!\");\r\n\t\trequire(_fields.length>0, \"Form needs atleast one field!\");\r\n\t\t\r\n\t\tformsCount++;\r\n\t\tuserFormCount[msg.sender]++;\r\n\t\t// Field[] fields;\r\n\t\t\r\n\t\tforms[formsCount] = Form(formsCount, _title, _description, block.timestamp, _endTime, msg.sender, _allowResponse,  _fieldsCount, 0);\r\n\r\n\t\tfor(uint i=1; i<=_fields.length; i++){\r\n\t\t\t// fields[formsCount][i] = _fields[i-1];\r\n\t\t\tstring[] memory options = new string[](_fields[i-1].options.length);\r\n\t\t\tfor(uint j=0; j<_fields[i-1].options.length; j++){\r\n\t\t\t\toptions[j]=_fields[i-1].options[j];\r\n\t\t\t}\r\n\t\t\tfields[formsCount][i] = Field(_fields[i-1].id, _fields[i-1].title, options, _fields[i-1].fieldType);\r\n\t\t}\r\n\r\n\t\temit NewFormCreated(formsCount, _title, _description, block.timestamp, _endTime, msg.sender, _allowResponse, _fieldsCount, _fields,  0);\r\n\t}\r\n\t\r\n\tfunction editForm(uint _formId, string memory _title, string memory _description, string memory _endTime, bool _allowResponse, uint _fieldsCount, Field[] memory _fields) public {\r\n\t\trequire(_formId>0, \"Form ID is invalid!\");\r\n\t\trequire(bytes(_title).length>0, \"Form title is requried!\");\r\n\t\trequire(bytes(_description).length>0, \"Form description is requried!\");\r\n\t\trequire(bytes(_endTime).length>0, \"Form end time is requried!\");\r\n\t\trequire(_fields.length>0, \"Form needs atleast one field!\");\r\n\r\n\t\tForm memory form = forms[_formId];\r\n\r\n\t\trequire(form.owner == msg.sender, \"Unauthorized Access!\");\r\n\t\t\r\n\t\tform = Form(_formId, _title, _description, block.timestamp, _endTime, msg.sender, _allowResponse,  _fieldsCount, form.submissionsCount);\r\n\r\n\t\tfor(uint i=1; i<=_fields.length; i++){\r\n\t\t\t// fields[formsCount][i] = _fields[i-1];\r\n\t\t\tstring[] memory options = new string[](_fields[i-1].options.length);\r\n\t\t\tfor(uint j=0; j<_fields[i-1].options.length; j++){\r\n\t\t\t\toptions[j]=_fields[i-1].options[j];\r\n\t\t\t}\r\n\t\t\tfields[_formId][i] = Field(_fields[i-1].id, _fields[i-1].title, options, _fields[i-1].fieldType);\r\n\t\t}\r\n\r\n\t\tforms[_formId] = form;\r\n\r\n\t\temit FormEdited(_formId, _title, _description, block.timestamp, _endTime, msg.sender, _allowResponse, _fieldsCount, _fields, form.submissionsCount);\r\n\t}\r\n\r\n\tfunction submitForm(uint _formId, Field[] memory _fields) public{\r\n\t\trequire(_formId>0, \"Form ID is invalid!\");\r\n\r\n\t\t// Get form \r\n\t\tForm storage _form = forms[_formId];\r\n\r\n\t\trequire(_form.allowResponse, \"This form is not taking the responses anymore...\");\r\n\r\n\t\t// Increase submission count\r\n\t\tuint _submissionsCount = ++_form.submissionsCount;\r\n\r\n\t\t// Get form submissions\r\n\t\tSubmissions memory _submission = submissions[_formId][_submissionsCount];\r\n\r\n\t\t// Store answers\r\n\t\tfor(uint i=0; i<_form.fieldsCount; i++){\r\n\t\t\t// _submission.fields[i-1].id=fields[_formId][i].id;\r\n\t\t\t// _submission.fields[i-1].options = new string[](_fields[i-1].options.length);\r\n\t\t\t\r\n\t\t\t// for(uint j=0; j<_fields[i-1].options.length; j++){\r\n\t\t\t// \t_submission.fields[i-1].options[j]=_fields[i-1].options[j];\r\n\t\t\t// }\r\n\r\n\t\t\t_submission.answers[i] = new string[](_fields[i-1].options.length);\r\n\t\t\t\r\n\t\t\tfor(uint j=0; j<_fields[i].options.length; j++){\r\n\t\t\t\t_submission.answers[i][j]=_fields[i].options[j];\r\n\t\t\t}\r\n\t\t}\r\n\t\t\r\n\t\t// Store submissions\r\n\r\n\t\tsubmissions[_formId][_submissionsCount] = Submissions(msg.sender, block.timestamp, _submission.answers);\r\n\t\t\r\n\t\t// Emit event\r\n\t\temit FormSubmitted(_formId, msg.sender, submissions[_formId][_submissionsCount]);\r\n\t}\r\n\r\n\tfunction getForms() public view returns (Form[] memory){\r\n\t\tForm[] memory _forms = new Form[](userFormCount[msg.sender]);\r\n\t\tuint j=0;\r\n\t\tfor(uint i=1; i<=formsCount; i++){\r\n\t\t\tif(forms[i].owner==msg.sender){\r\n\t\t\t\t_forms[j]=forms[i];\r\n                j++;\r\n\t\t\t}\r\n\t\t}\r\n\r\n\t\treturn _forms;\r\n\t}\r\n\r\n\tfunction getFields(uint _formId) public view returns(Field[] memory){\r\n\t\tForm memory form = forms[_formId];\r\n\r\n\t\tuint _fieldsCount = form.fieldsCount;\r\n\t\tField[] memory _fields = new Field[](_fieldsCount);\r\n\t\t\r\n\t\tfor(uint i=1; i<=_fieldsCount; i++){\r\n\t\t\t\t_fields[i-1]=fields[form.id][i];\r\n\t\t}\r\n\r\n\t\treturn _fields;\r\n\t}\r\n}",
  "sourcePath": "D:\\Engineering\\Dev\\Blockchain Development\\Projects\\FormsApp\\src\\contracts\\FormsApp.sol",
  "compiler": {
    "name": "solc",
    "version": "0.5.16+commit.9c3226ce.Emscripten.clang"
  },
  "schemaVersion": "3.4.3",
  "updatedAt": "2022-03-25T16:47:31.629Z",
  "devdoc": {
    "methods": {}
  },
  "userdoc": {
    "methods": {}
  }
}