{
  "contractName": "FormsApp",
  "abi": [
    {
      "inputs": [],
      "payable": false,
      "stateMutability": "nonpayable",
      "type": "constructor"
    },
    {
      "anonymous": false,
      "inputs": [
        {
          "indexed": true,
          "internalType": "uint256",
          "name": "id",
          "type": "uint256"
        },
        {
          "indexed": false,
          "internalType": "string",
          "name": "title",
          "type": "string"
        },
        {
          "indexed": false,
          "internalType": "string",
          "name": "description",
          "type": "string"
        },
        {
          "indexed": false,
          "internalType": "uint256",
          "name": "timestamp",
          "type": "uint256"
        },
        {
          "indexed": false,
          "internalType": "string",
          "name": "endTime",
          "type": "string"
        },
        {
          "indexed": false,
          "internalType": "address",
          "name": "owner",
          "type": "address"
        },
        {
          "indexed": false,
          "internalType": "string",
          "name": "googleId",
          "type": "string"
        },
        {
          "indexed": false,
          "internalType": "bool",
          "name": "disabled",
          "type": "bool"
        },
        {
          "indexed": false,
          "internalType": "uint256",
          "name": "fieldsCount",
          "type": "uint256"
        },
        {
          "components": [
            {
              "internalType": "uint256",
              "name": "id",
              "type": "uint256"
            },
            {
              "internalType": "string",
              "name": "title",
              "type": "string"
            }
          ],
          "indexed": false,
          "internalType": "struct FormsApp.Field[]",
          "name": "fields",
          "type": "tuple[]"
        },
        {
          "indexed": false,
          "internalType": "uint256",
          "name": "submissionsCount",
          "type": "uint256"
        }
      ],
      "name": "NewFormCreated",
      "type": "event"
    },
    {
      "constant": true,
      "inputs": [
        {
          "internalType": "uint256",
          "name": "",
          "type": "uint256"
        }
      ],
      "name": "forms",
      "outputs": [
        {
          "internalType": "uint256",
          "name": "id",
          "type": "uint256"
        },
        {
          "internalType": "string",
          "name": "title",
          "type": "string"
        },
        {
          "internalType": "string",
          "name": "description",
          "type": "string"
        },
        {
          "internalType": "uint256",
          "name": "timestamp",
          "type": "uint256"
        },
        {
          "internalType": "string",
          "name": "endTime",
          "type": "string"
        },
        {
          "internalType": "address",
          "name": "owner",
          "type": "address"
        },
        {
          "internalType": "string",
          "name": "googleId",
          "type": "string"
        },
        {
          "internalType": "bool",
          "name": "disabled",
          "type": "bool"
        },
        {
          "internalType": "uint256",
          "name": "fieldsCount",
          "type": "uint256"
        },
        {
          "internalType": "uint256",
          "name": "submissionsCount",
          "type": "uint256"
        }
      ],
      "payable": false,
      "stateMutability": "view",
      "type": "function"
    },
    {
      "constant": true,
      "inputs": [],
      "name": "formsCount",
      "outputs": [
        {
          "internalType": "uint256",
          "name": "",
          "type": "uint256"
        }
      ],
      "payable": false,
      "stateMutability": "view",
      "type": "function"
    },
    {
      "constant": true,
      "inputs": [],
      "name": "name",
      "outputs": [
        {
          "internalType": "string",
          "name": "",
          "type": "string"
        }
      ],
      "payable": false,
      "stateMutability": "view",
      "type": "function"
    },
    {
      "constant": false,
      "inputs": [
        {
          "internalType": "string",
          "name": "_title",
          "type": "string"
        },
        {
          "internalType": "string",
          "name": "_description",
          "type": "string"
        },
        {
          "internalType": "string",
          "name": "_endTime",
          "type": "string"
        },
        {
          "internalType": "string",
          "name": "_googleId",
          "type": "string"
        },
        {
          "internalType": "bool",
          "name": "_disabled",
          "type": "bool"
        },
        {
          "internalType": "uint256",
          "name": "_fieldsCount",
          "type": "uint256"
        },
        {
          "components": [
            {
              "internalType": "uint256",
              "name": "id",
              "type": "uint256"
            },
            {
              "internalType": "string",
              "name": "title",
              "type": "string"
            }
          ],
          "internalType": "struct FormsApp.Field[]",
          "name": "_fields",
          "type": "tuple[]"
        }
      ],
      "name": "createForm",
      "outputs": [],
      "payable": false,
      "stateMutability": "nonpayable",
      "type": "function"
    }
  ],
  "bytecode": "0x60806040523480156200001157600080fd5b506040518060400160405280600881526020017f466f726d73417070000000000000000000000000000000000000000000000000815250600090805190602001906200005f9291906200006e565b5060006001819055506200011d565b828054600181600116156101000203166002900490600052602060002090601f016020900481019282601f10620000b157805160ff1916838001178555620000e2565b82800160010185558215620000e2579182015b82811115620000e1578251825591602001919060010190620000c4565b5b509050620000f19190620000f5565b5090565b6200011a91905b8082111562000116576000816000905550600101620000fc565b5090565b90565b6112e3806200012d6000396000f3fe608060405234801561001057600080fd5b506004361061004c5760003560e01c806306fdde031461005157806318c864e31461006f578063b3d7c005146100a8578063c56ad1a5146100c4575b600080fd5b6100596100e2565b6040516100669190610e3d565b60405180910390f35b61008960048036036100849190810190610b49565b610180565b60405161009f9a99989796959493929190610fb9565b60405180910390f35b6100c260048036036100bd9190810190610a33565b610461565b005b6100cc6107de565b6040516100d99190610f9e565b60405180910390f35b60008054600181600116156101000203166002900480601f0160208091040260200160405190810160405280929190818152602001828054600181600116156101000203166002900480156101785780601f1061014d57610100808354040283529160200191610178565b820191906000526020600020905b81548152906001019060200180831161015b57829003601f168201915b505050505081565b6002602052806000526040600020600091509050806000015490806001018054600181600116156101000203166002900480601f0160208091040260200160405190810160405280929190818152602001828054600181600116156101000203166002900480156102325780601f1061020757610100808354040283529160200191610232565b820191906000526020600020905b81548152906001019060200180831161021557829003601f168201915b505050505090806002018054600181600116156101000203166002900480601f0160208091040260200160405190810160405280929190818152602001828054600181600116156101000203166002900480156102d05780601f106102a5576101008083540402835291602001916102d0565b820191906000526020600020905b8154815290600101906020018083116102b357829003601f168201915b505050505090806003015490806004018054600181600116156101000203166002900480601f0160208091040260200160405190810160405280929190818152602001828054600181600116156101000203166002900480156103745780601f1061034957610100808354040283529160200191610374565b820191906000526020600020905b81548152906001019060200180831161035757829003601f168201915b5050505050908060050160009054906101000a900473ffffffffffffffffffffffffffffffffffffffff1690806006018054600181600116156101000203166002900480601f0160208091040260200160405190810160405280929190818152602001828054600181600116156101000203166002900480156104385780601f1061040d57610100808354040283529160200191610438565b820191906000526020600020905b81548152906001019060200180831161041b57829003601f168201915b5050505050908060070160009054906101000a900460ff169080600801549080600a015490508a565b60008751116104a5576040517f08c379a000000000000000000000000000000000000000000000000000000000815260040161049c90610f5e565b60405180910390fd5b60008651116104e9576040517f08c379a00000000000000000000000000000000000000000000000000000000081526004016104e090610f7e565b60405180910390fd5b600085511161052d576040517f08c379a000000000000000000000000000000000000000000000000000000000815260040161052490610f3e565b60405180910390fd5b6000845111610571576040517f08c379a000000000000000000000000000000000000000000000000000000000815260040161056890610f1e565b60405180910390fd5b60016000815480929190600101919050555060405180610140016040528060015481526020018881526020018781526020014281526020018681526020013373ffffffffffffffffffffffffffffffffffffffff1681526020018581526020018415158152602001838152602001600081525060026000600154815260200190815260200160002060008201518160000155602082015181600101908051906020019061061f9291906107e4565b50604082015181600201908051906020019061063c9291906107e4565b506060820151816003015560808201518160040190805190602001906106639291906107e4565b5060a08201518160050160006101000a81548173ffffffffffffffffffffffffffffffffffffffff021916908373ffffffffffffffffffffffffffffffffffffffff16021790555060c08201518160060190805190602001906106c79291906107e4565b5060e08201518160070160006101000a81548160ff021916908315150217905550610100820151816008015561012082015181600a01559050506000600190505b815181116107875781600182038151811061071f57fe5b602002602001015160026000600154815260200190815260200160002060090160008381526020019081526020016000206000820151816000015560208201518160010190805190602001906107769291906107e4565b509050508080600101915050610708565b506001547f48dd0c7c633d0aeaae2109bff2364d6cf6e12888ce29c1b780c07955d3f1bb1188884289338a8a8a8a60006040516107cd9a99989796959493929190610e5f565b60405180910390a250505050505050565b60015481565b828054600181600116156101000203166002900490600052602060002090601f016020900481019282601f1061082557805160ff1916838001178555610853565b82800160010185558215610853579182015b82811115610852578251825591602001919060010190610837565b5b5090506108609190610864565b5090565b61088691905b8082111561088257600081600090555060010161086a565b5090565b90565b600082601f83011261089a57600080fd5b81356108ad6108a88261109e565b611071565b9150818183526020840193506020810190508360005b838110156108f357813586016108d988826109ba565b8452602084019350602083019250506001810190506108c3565b5050505092915050565b60008135905061090c81611272565b92915050565b600082601f83011261092357600080fd5b8135610936610931826110c6565b611071565b9150808252602083016020830185838301111561095257600080fd5b61095d83828461121f565b50505092915050565b600082601f83011261097757600080fd5b813561098a610985826110f2565b611071565b915080825260208301602083018583830111156109a657600080fd5b6109b183828461121f565b50505092915050565b6000604082840312156109cc57600080fd5b6109d66040611071565b905060006109e684828501610a1e565b600083015250602082013567ffffffffffffffff811115610a0657600080fd5b610a1284828501610912565b60208301525092915050565b600081359050610a2d81611289565b92915050565b600080600080600080600060e0888a031215610a4e57600080fd5b600088013567ffffffffffffffff811115610a6857600080fd5b610a748a828b01610966565b975050602088013567ffffffffffffffff811115610a9157600080fd5b610a9d8a828b01610966565b965050604088013567ffffffffffffffff811115610aba57600080fd5b610ac68a828b01610966565b955050606088013567ffffffffffffffff811115610ae357600080fd5b610aef8a828b01610966565b9450506080610b008a828b016108fd565b93505060a0610b118a828b01610a1e565b92505060c088013567ffffffffffffffff811115610b2e57600080fd5b610b3a8a828b01610889565b91505092959891949750929550565b600060208284031215610b5b57600080fd5b6000610b6984828501610a1e565b91505092915050565b6000610b7e8383610de2565b905092915050565b610b8f816111d7565b82525050565b610b9e8161118f565b82525050565b6000610baf8261112e565b610bb9818561115c565b935083602082028501610bcb8561111e565b8060005b85811015610c075784840389528151610be88582610b72565b9450610bf38361114f565b925060208a01995050600181019050610bcf565b50829750879550505050505092915050565b610c22816111a1565b82525050565b610c31816111e9565b82525050565b6000610c4282611144565b610c4c818561117e565b9350610c5c81856020860161122e565b610c6581611261565b840191505092915050565b6000610c7b82611139565b610c85818561116d565b9350610c9581856020860161122e565b610c9e81611261565b840191505092915050565b6000610cb482611139565b610cbe818561117e565b9350610cce81856020860161122e565b610cd781611261565b840191505092915050565b6000610cef601d8361117e565b91507f4f776e6572277320676f6f676c652069642069732072657175726965640000006000830152602082019050919050565b6000610d2f60198361117e565b91507f466f726d20656e642074696d65206973207265717572696564000000000000006000830152602082019050919050565b6000610d6f60168361117e565b91507f466f726d207469746c65206973207265717572696564000000000000000000006000830152602082019050919050565b6000610daf601c8361117e565b91507f466f726d206465736372697074696f6e206973207265717572696564000000006000830152602082019050919050565b6000604083016000830151610dfa6000860182610e1f565b5060208301518482036020860152610e128282610c70565b9150508091505092915050565b610e28816111cd565b82525050565b610e37816111cd565b82525050565b60006020820190508181036000830152610e578184610ca9565b905092915050565b6000610140820190508181036000830152610e7a818d610c37565b90508181036020830152610e8e818c610c37565b9050610e9d604083018b610e2e565b8181036060830152610eaf818a610c37565b9050610ebe6080830189610b86565b81810360a0830152610ed08188610c37565b9050610edf60c0830187610c19565b610eec60e0830186610e2e565b818103610100830152610eff8185610ba4565b9050610f0f610120830184610c28565b9b9a5050505050505050505050565b60006020820190508181036000830152610f3781610ce2565b9050919050565b60006020820190508181036000830152610f5781610d22565b9050919050565b60006020820190508181036000830152610f7781610d62565b9050919050565b60006020820190508181036000830152610f9781610da2565b9050919050565b6000602082019050610fb36000830184610e2e565b92915050565b600061014082019050610fcf600083018d610e2e565b8181036020830152610fe1818c610ca9565b90508181036040830152610ff5818b610ca9565b9050611004606083018a610e2e565b81810360808301526110168189610ca9565b905061102560a0830188610b95565b81810360c08301526110378187610ca9565b905061104660e0830186610c19565b611054610100830185610e2e565b611062610120830184610e2e565b9b9a5050505050505050505050565b6000604051905081810181811067ffffffffffffffff8211171561109457600080fd5b8060405250919050565b600067ffffffffffffffff8211156110b557600080fd5b602082029050602081019050919050565b600067ffffffffffffffff8211156110dd57600080fd5b601f19601f8301169050602081019050919050565b600067ffffffffffffffff82111561110957600080fd5b601f19601f8301169050602081019050919050565b6000819050602082019050919050565b600081519050919050565b600081519050919050565b600081519050919050565b6000602082019050919050565b600082825260208201905092915050565b600082825260208201905092915050565b600082825260208201905092915050565b600061119a826111ad565b9050919050565b60008115159050919050565b600073ffffffffffffffffffffffffffffffffffffffff82169050919050565b6000819050919050565b60006111e2826111fb565b9050919050565b60006111f4826111cd565b9050919050565b60006112068261120d565b9050919050565b6000611218826111ad565b9050919050565b82818337600083830152505050565b60005b8381101561124c578082015181840152602081019050611231565b8381111561125b576000848401525b50505050565b6000601f19601f8301169050919050565b61127b816111a1565b811461128657600080fd5b50565b611292816111cd565b811461129d57600080fd5b5056fea365627a7a72315820d8d7b577683c32734a3e5ea7ce0c461f54df112dd89a50ee7d3d3a8e27ebb8d46c6578706572696d656e74616cf564736f6c63430005100040",
  "source": "pragma solidity ^0.5.0;\r\npragma experimental ABIEncoderV2;\r\n\r\ncontract FormsApp{\r\n\tstring public name;\r\n\r\n\t// Store forms...\r\n\tuint public formsCount;\r\n\tmapping(uint => Form) public forms;\r\n\r\n\tstruct Form{\r\n\t\tuint id;\r\n\t\tstring title;\r\n\t\tstring description;\r\n\t\tuint timestamp;\r\n\t\tstring endTime;\r\n\t\taddress owner;\r\n\t\tstring googleId;\r\n\t\tbool disabled;\r\n\t\tuint fieldsCount;\r\n\t\t// Field[] fields;\r\n\t\tmapping(uint => Field) fields;\r\n\t\tuint submissionsCount;\r\n\t}\r\n\r\n\tstruct Field{\r\n\t\tuint id;\r\n\t\tstring title;\r\n\t}\r\n\t\r\n\tevent NewFormCreated(uint indexed id, string title, string description, uint timestamp, string endTime, address owner, string googleId, bool disabled, uint fieldsCount, Field[] fields, uint submissionsCount);\r\n\r\n\tconstructor() public{\r\n\t\tname = \"FormsApp\";\r\n\r\n\t\tformsCount=0;\r\n\t}\r\n\r\n\tfunction createForm(string memory _title, string memory _description, string memory _endTime, string memory _googleId, bool _disabled, uint _fieldsCount, Field[] memory _fields) public {\r\n\t\trequire(bytes(_title).length>0, \"Form title is requried\");\r\n\t\trequire(bytes(_description).length>0, \"Form description is requried\");\r\n\t\trequire(bytes(_endTime).length>0, \"Form end time is requried\");\r\n\t\trequire(bytes(_googleId).length>0, \"Owner's google id is requried\");\r\n\t\t\r\n\t\tformsCount++;\r\n\t\t// Field[] fields;\r\n\t\t\r\n\t\tforms[formsCount] = Form(formsCount, _title, _description, block.timestamp, _endTime, msg.sender, _googleId, _disabled,  _fieldsCount, 0);\r\n\r\n\t\tfor(uint i=1; i<=_fields.length; i++){\r\n\t\t\tforms[formsCount].fields[i] = _fields[i-1];\r\n\t\t}\r\n\r\n\t\temit NewFormCreated(formsCount, _title, _description, block.timestamp, _endTime, msg.sender, _googleId, _disabled, _fieldsCount, _fields,  0);\r\n\t}\r\n}",
  "sourcePath": "D:\\Engineering\\Dev\\Blockchain Development\\Projects\\FormsApp\\src\\contracts\\FormsApp.sol",
  "compiler": {
    "name": "solc",
    "version": "0.5.16+commit.9c3226ce.Emscripten.clang"
  },
  "schemaVersion": "3.4.3",
  "updatedAt": "2022-03-14T17:38:07.516Z",
  "networkType": "ethereum",
  "devdoc": {
    "methods": {}
  },
  "userdoc": {
    "methods": {}
  }
}