{
  "contractName": "FormsApp",
  "abi": [
    {
      "inputs": [],
      "payable": false,
      "stateMutability": "nonpayable",
      "type": "constructor"
    },
    {
      "anonymous": false,
      "inputs": [
        {
          "indexed": true,
          "internalType": "uint256",
          "name": "id",
          "type": "uint256"
        },
        {
          "indexed": false,
          "internalType": "string",
          "name": "title",
          "type": "string"
        },
        {
          "indexed": false,
          "internalType": "string",
          "name": "description",
          "type": "string"
        },
        {
          "indexed": false,
          "internalType": "uint256",
          "name": "timestamp",
          "type": "uint256"
        },
        {
          "indexed": false,
          "internalType": "string",
          "name": "endTime",
          "type": "string"
        },
        {
          "indexed": false,
          "internalType": "address",
          "name": "owner",
          "type": "address"
        },
        {
          "indexed": false,
          "internalType": "bool",
          "name": "allowResponse",
          "type": "bool"
        },
        {
          "indexed": false,
          "internalType": "uint256",
          "name": "fieldsCount",
          "type": "uint256"
        },
        {
          "components": [
            {
              "internalType": "uint256",
              "name": "id",
              "type": "uint256"
            },
            {
              "internalType": "string",
              "name": "title",
              "type": "string"
            },
            {
              "internalType": "string[]",
              "name": "options",
              "type": "string[]"
            },
            {
              "internalType": "string",
              "name": "fieldType",
              "type": "string"
            }
          ],
          "indexed": false,
          "internalType": "struct FormsApp.Field[]",
          "name": "fields",
          "type": "tuple[]"
        },
        {
          "indexed": false,
          "internalType": "uint256",
          "name": "submissionsCount",
          "type": "uint256"
        }
      ],
      "name": "FormEdited",
      "type": "event"
    },
    {
      "anonymous": false,
      "inputs": [
        {
          "indexed": true,
          "internalType": "uint256",
          "name": "formId",
          "type": "uint256"
        },
        {
          "indexed": false,
          "internalType": "address",
          "name": "user",
          "type": "address"
        },
        {
          "indexed": false,
          "internalType": "string[][]",
          "name": "answers",
          "type": "string[][]"
        }
      ],
      "name": "FormSubmitted",
      "type": "event"
    },
    {
      "anonymous": false,
      "inputs": [
        {
          "indexed": true,
          "internalType": "uint256",
          "name": "id",
          "type": "uint256"
        },
        {
          "indexed": false,
          "internalType": "string",
          "name": "title",
          "type": "string"
        },
        {
          "indexed": false,
          "internalType": "string",
          "name": "description",
          "type": "string"
        },
        {
          "indexed": false,
          "internalType": "uint256",
          "name": "timestamp",
          "type": "uint256"
        },
        {
          "indexed": false,
          "internalType": "string",
          "name": "endTime",
          "type": "string"
        },
        {
          "indexed": false,
          "internalType": "address",
          "name": "owner",
          "type": "address"
        },
        {
          "indexed": false,
          "internalType": "bool",
          "name": "allowResponse",
          "type": "bool"
        },
        {
          "indexed": false,
          "internalType": "uint256",
          "name": "fieldsCount",
          "type": "uint256"
        },
        {
          "components": [
            {
              "internalType": "uint256",
              "name": "id",
              "type": "uint256"
            },
            {
              "internalType": "string",
              "name": "title",
              "type": "string"
            },
            {
              "internalType": "string[]",
              "name": "options",
              "type": "string[]"
            },
            {
              "internalType": "string",
              "name": "fieldType",
              "type": "string"
            }
          ],
          "indexed": false,
          "internalType": "struct FormsApp.Field[]",
          "name": "fields",
          "type": "tuple[]"
        },
        {
          "indexed": false,
          "internalType": "uint256",
          "name": "submissionsCount",
          "type": "uint256"
        }
      ],
      "name": "NewFormCreated",
      "type": "event"
    },
    {
      "constant": true,
      "inputs": [
        {
          "internalType": "uint256",
          "name": "",
          "type": "uint256"
        },
        {
          "internalType": "uint256",
          "name": "",
          "type": "uint256"
        }
      ],
      "name": "fields",
      "outputs": [
        {
          "internalType": "uint256",
          "name": "id",
          "type": "uint256"
        },
        {
          "internalType": "string",
          "name": "title",
          "type": "string"
        },
        {
          "internalType": "string",
          "name": "fieldType",
          "type": "string"
        }
      ],
      "payable": false,
      "stateMutability": "view",
      "type": "function"
    },
    {
      "constant": true,
      "inputs": [
        {
          "internalType": "uint256",
          "name": "",
          "type": "uint256"
        }
      ],
      "name": "forms",
      "outputs": [
        {
          "internalType": "uint256",
          "name": "id",
          "type": "uint256"
        },
        {
          "internalType": "string",
          "name": "title",
          "type": "string"
        },
        {
          "internalType": "string",
          "name": "description",
          "type": "string"
        },
        {
          "internalType": "uint256",
          "name": "timestamp",
          "type": "uint256"
        },
        {
          "internalType": "string",
          "name": "endTime",
          "type": "string"
        },
        {
          "internalType": "address",
          "name": "owner",
          "type": "address"
        },
        {
          "internalType": "bool",
          "name": "allowResponse",
          "type": "bool"
        },
        {
          "internalType": "uint256",
          "name": "fieldsCount",
          "type": "uint256"
        },
        {
          "internalType": "uint256",
          "name": "submissionsCount",
          "type": "uint256"
        }
      ],
      "payable": false,
      "stateMutability": "view",
      "type": "function"
    },
    {
      "constant": true,
      "inputs": [],
      "name": "formsCount",
      "outputs": [
        {
          "internalType": "uint256",
          "name": "",
          "type": "uint256"
        }
      ],
      "payable": false,
      "stateMutability": "view",
      "type": "function"
    },
    {
      "constant": true,
      "inputs": [],
      "name": "name",
      "outputs": [
        {
          "internalType": "string",
          "name": "",
          "type": "string"
        }
      ],
      "payable": false,
      "stateMutability": "view",
      "type": "function"
    },
    {
      "constant": true,
      "inputs": [
        {
          "internalType": "uint256",
          "name": "",
          "type": "uint256"
        },
        {
          "internalType": "uint256",
          "name": "",
          "type": "uint256"
        }
      ],
      "name": "submissions",
      "outputs": [
        {
          "internalType": "address",
          "name": "user",
          "type": "address"
        },
        {
          "internalType": "uint256",
          "name": "timestamp",
          "type": "uint256"
        }
      ],
      "payable": false,
      "stateMutability": "view",
      "type": "function"
    },
    {
      "constant": false,
      "inputs": [
        {
          "internalType": "string",
          "name": "_title",
          "type": "string"
        },
        {
          "internalType": "string",
          "name": "_description",
          "type": "string"
        },
        {
          "internalType": "string",
          "name": "_endTime",
          "type": "string"
        },
        {
          "internalType": "bool",
          "name": "_allowResponse",
          "type": "bool"
        },
        {
          "internalType": "uint256",
          "name": "_fieldsCount",
          "type": "uint256"
        },
        {
          "components": [
            {
              "internalType": "uint256",
              "name": "id",
              "type": "uint256"
            },
            {
              "internalType": "string",
              "name": "title",
              "type": "string"
            },
            {
              "internalType": "string[]",
              "name": "options",
              "type": "string[]"
            },
            {
              "internalType": "string",
              "name": "fieldType",
              "type": "string"
            }
          ],
          "internalType": "struct FormsApp.Field[]",
          "name": "_fields",
          "type": "tuple[]"
        }
      ],
      "name": "createForm",
      "outputs": [],
      "payable": false,
      "stateMutability": "nonpayable",
      "type": "function"
    },
    {
      "constant": false,
      "inputs": [
        {
          "internalType": "uint256",
          "name": "_formId",
          "type": "uint256"
        },
        {
          "internalType": "string",
          "name": "_title",
          "type": "string"
        },
        {
          "internalType": "string",
          "name": "_description",
          "type": "string"
        },
        {
          "internalType": "string",
          "name": "_endTime",
          "type": "string"
        },
        {
          "internalType": "bool",
          "name": "_allowResponse",
          "type": "bool"
        },
        {
          "internalType": "uint256",
          "name": "_fieldsCount",
          "type": "uint256"
        },
        {
          "components": [
            {
              "internalType": "uint256",
              "name": "id",
              "type": "uint256"
            },
            {
              "internalType": "string",
              "name": "title",
              "type": "string"
            },
            {
              "internalType": "string[]",
              "name": "options",
              "type": "string[]"
            },
            {
              "internalType": "string",
              "name": "fieldType",
              "type": "string"
            }
          ],
          "internalType": "struct FormsApp.Field[]",
          "name": "_fields",
          "type": "tuple[]"
        }
      ],
      "name": "editForm",
      "outputs": [],
      "payable": false,
      "stateMutability": "nonpayable",
      "type": "function"
    },
    {
      "constant": false,
      "inputs": [
        {
          "internalType": "uint256",
          "name": "_formId",
          "type": "uint256"
        },
        {
          "components": [
            {
              "internalType": "uint256",
              "name": "id",
              "type": "uint256"
            },
            {
              "internalType": "string",
              "name": "title",
              "type": "string"
            },
            {
              "internalType": "string[]",
              "name": "options",
              "type": "string[]"
            },
            {
              "internalType": "string",
              "name": "fieldType",
              "type": "string"
            }
          ],
          "internalType": "struct FormsApp.Field[]",
          "name": "_fields",
          "type": "tuple[]"
        }
      ],
      "name": "submitForm",
      "outputs": [],
      "payable": false,
      "stateMutability": "nonpayable",
      "type": "function"
    },
    {
      "constant": true,
      "inputs": [],
      "name": "getForms",
      "outputs": [
        {
          "components": [
            {
              "internalType": "uint256",
              "name": "id",
              "type": "uint256"
            },
            {
              "internalType": "string",
              "name": "title",
              "type": "string"
            },
            {
              "internalType": "string",
              "name": "description",
              "type": "string"
            },
            {
              "internalType": "uint256",
              "name": "timestamp",
              "type": "uint256"
            },
            {
              "internalType": "string",
              "name": "endTime",
              "type": "string"
            },
            {
              "internalType": "address",
              "name": "owner",
              "type": "address"
            },
            {
              "internalType": "bool",
              "name": "allowResponse",
              "type": "bool"
            },
            {
              "internalType": "uint256",
              "name": "fieldsCount",
              "type": "uint256"
            },
            {
              "internalType": "uint256",
              "name": "submissionsCount",
              "type": "uint256"
            }
          ],
          "internalType": "struct FormsApp.Form[]",
          "name": "",
          "type": "tuple[]"
        }
      ],
      "payable": false,
      "stateMutability": "view",
      "type": "function"
    },
    {
      "constant": true,
      "inputs": [
        {
          "internalType": "uint256",
          "name": "_formId",
          "type": "uint256"
        }
      ],
      "name": "getFields",
      "outputs": [
        {
          "components": [
            {
              "internalType": "uint256",
              "name": "id",
              "type": "uint256"
            },
            {
              "internalType": "string",
              "name": "title",
              "type": "string"
            },
            {
              "internalType": "string[]",
              "name": "options",
              "type": "string[]"
            },
            {
              "internalType": "string",
              "name": "fieldType",
              "type": "string"
            }
          ],
          "internalType": "struct FormsApp.Field[]",
          "name": "",
          "type": "tuple[]"
        }
      ],
      "payable": false,
      "stateMutability": "view",
      "type": "function"
    },
    {
      "constant": true,
      "inputs": [
        {
          "internalType": "uint256",
          "name": "_formId",
          "type": "uint256"
        }
      ],
      "name": "getSubmissions",
      "outputs": [
        {
          "components": [
            {
              "internalType": "address",
              "name": "user",
              "type": "address"
            },
            {
              "internalType": "uint256",
              "name": "timestamp",
              "type": "uint256"
            },
            {
              "internalType": "string[][]",
              "name": "answers",
              "type": "string[][]"
            }
          ],
          "internalType": "struct FormsApp.Submissions[]",
          "name": "",
          "type": "tuple[]"
        }
      ],
      "payable": false,
      "stateMutability": "view",
      "type": "function"
    },
    {
      "constant": true,
      "inputs": [
        {
          "internalType": "uint256",
          "name": "_formId",
          "type": "uint256"
        }
      ],
      "name": "getUserSubmission",
      "outputs": [
        {
          "components": [
            {
              "internalType": "address",
              "name": "user",
              "type": "address"
            },
            {
              "internalType": "uint256",
              "name": "timestamp",
              "type": "uint256"
            },
            {
              "internalType": "string[][]",
              "name": "answers",
              "type": "string[][]"
            }
          ],
          "internalType": "struct FormsApp.Submissions",
          "name": "",
          "type": "tuple"
        }
      ],
      "payable": false,
      "stateMutability": "view",
      "type": "function"
    }
  ],
  "bytecode": "0x60806040523480156200001157600080fd5b506040518060400160405280600881526020017f466f726d73417070000000000000000000000000000000000000000000000000815250600090805190602001906200005f9291906200006e565b5060006002819055506200011d565b828054600181600116156101000203166002900490600052602060002090601f016020900481019282601f10620000b157805160ff1916838001178555620000e2565b82800160010185558215620000e2579182015b82811115620000e1578251825591602001919060010190620000c4565b5b509050620000f19190620000f5565b5090565b6200011a91905b8082111562000116576000816000905550600101620000fc565b5090565b90565b6145f6806200012d6000396000f3fe608060405234801561001057600080fd5b50600436106100b45760003560e01c80638c10e904116100715780638c10e904146101bc578063bb73e502146101d8578063c56ad1a514610208578063c5e6e68914610226578063e19b4fae14610244578063e420a82a14610276576100b4565b806306fdde03146100b95780630f0cb228146100d757806316c53ced1461010757806318c864e31461013757806367bc5da71461016f57806369c1fc251461018b575b600080fd5b6100c1610292565b6040516100ce9190613e67565b60405180910390f35b6100f160048036036100ec91908101906132fc565b610330565b6040516100fe9190613e01565b60405180910390f35b610121600480360361011c91908101906132fc565b6108cd565b60405161012e9190613e45565b60405180910390f35b610151600480360361014c91908101906132fc565b610e36565b6040516101669998979695949392919061419d565b60405180910390f35b61018960048036036101849190810190613379565b611079565b005b6101a560048036036101a09190810190613477565b61187f565b6040516101b3929190613dd8565b60405180910390f35b6101d660048036036101d19190810190613213565b6118d0565b005b6101f260048036036101ed91908101906132fc565b611dd5565b6040516101ff919061411b565b60405180910390f35b61021061230c565b60405161021d919061413d565b60405180910390f35b61022e612312565b60405161023b9190613e23565b60405180910390f35b61025e60048036036102599190810190613477565b6126e4565b60405161026d93929190614158565b60405180910390f35b610290600480360361028b9190810190613325565b61284b565b005b60008054600181600116156101000203166002900480601f0160208091040260200160405190810160405280929190818152602001828054600181600116156101000203166002900480156103285780601f106102fd57610100808354040283529160200191610328565b820191906000526020600020905b81548152906001019060200180831161030b57829003601f168201915b505050505081565b606061033a612c19565b600360008481526020019081526020016000206040518061012001604052908160008201548152602001600182018054600181600116156101000203166002900480601f0160208091040260200160405190810160405280929190818152602001828054600181600116156101000203166002900480156103fc5780601f106103d1576101008083540402835291602001916103fc565b820191906000526020600020905b8154815290600101906020018083116103df57829003601f168201915b50505050508152602001600282018054600181600116156101000203166002900480601f01602080910402602001604051908101604052809291908181526020018280546001816001161561010002031660029004801561049e5780601f106104735761010080835404028352916020019161049e565b820191906000526020600020905b81548152906001019060200180831161048157829003601f168201915b5050505050815260200160038201548152602001600482018054600181600116156101000203166002900480601f01602080910402602001604051908101604052809291908181526020018280546001816001161561010002031660029004801561054a5780601f1061051f5761010080835404028352916020019161054a565b820191906000526020600020905b81548152906001019060200180831161052d57829003601f168201915b505050505081526020016005820160009054906101000a900473ffffffffffffffffffffffffffffffffffffffff1673ffffffffffffffffffffffffffffffffffffffff1673ffffffffffffffffffffffffffffffffffffffff1681526020016005820160149054906101000a900460ff1615151515815260200160068201548152602001600782015481525050905060008160e00151905060608160405190808252806020026020018201604052801561061f57816020015b61060c612c7d565b8152602001906001900390816106045790505b5090506000600190505b8281116108c1576004600085600001518152602001908152602001600020600082815260200190815260200160002060405180608001604052908160008201548152602001600182018054600181600116156101000203166002900480601f0160208091040260200160405190810160405280929190818152602001828054600181600116156101000203166002900480156107065780601f106106db57610100808354040283529160200191610706565b820191906000526020600020905b8154815290600101906020018083116106e957829003601f168201915b5050505050815260200160028201805480602002602001604051908101604052809291908181526020016000905b828210156107f0578382906000526020600020018054600181600116156101000203166002900480601f0160208091040260200160405190810160405280929190818152602001828054600181600116156101000203166002900480156107dc5780601f106107b1576101008083540402835291602001916107dc565b820191906000526020600020905b8154815290600101906020018083116107bf57829003601f168201915b505050505081526020019060010190610734565b505050508152602001600382018054600181600116156101000203166002900480601f0160208091040260200160405190810160405280929190818152602001828054600181600116156101000203166002900480156108915780601f1061086657610100808354040283529160200191610891565b820191906000526020600020905b81548152906001019060200180831161087457829003601f168201915b5050505050815250508260018303815181106108a957fe5b60200260200101819052508080600101915050610629565b50809350505050919050565b60606108d7612c19565b600360008481526020019081526020016000206040518061012001604052908160008201548152602001600182018054600181600116156101000203166002900480601f0160208091040260200160405190810160405280929190818152602001828054600181600116156101000203166002900480156109995780601f1061096e57610100808354040283529160200191610999565b820191906000526020600020905b81548152906001019060200180831161097c57829003601f168201915b50505050508152602001600282018054600181600116156101000203166002900480601f016020809104026020016040519081016040528092919081815260200182805460018160011615610100020316600290048015610a3b5780601f10610a1057610100808354040283529160200191610a3b565b820191906000526020600020905b815481529060010190602001808311610a1e57829003601f168201915b5050505050815260200160038201548152602001600482018054600181600116156101000203166002900480601f016020809104026020016040519081016040528092919081815260200182805460018160011615610100020316600290048015610ae75780601f10610abc57610100808354040283529160200191610ae7565b820191906000526020600020905b815481529060010190602001808311610aca57829003601f168201915b505050505081526020016005820160009054906101000a900473ffffffffffffffffffffffffffffffffffffffff1673ffffffffffffffffffffffffffffffffffffffff1673ffffffffffffffffffffffffffffffffffffffff1681526020016005820160149054906101000a900460ff161515151581526020016006820154815260200160078201548152505090508060a0015173ffffffffffffffffffffffffffffffffffffffff163373ffffffffffffffffffffffffffffffffffffffff1614610be9576040517f08c379a0000000000000000000000000000000000000000000000000000000008152600401610be09061409b565b60405180910390fd5b60008161010001519050606081604051908082528060200260200182016040528015610c2f57816020015b610c1c612ca5565b815260200190600190039081610c145790505b5090506000600190505b828111610e2a57600560008560000151815260200190815260200160002060008281526020019081526020016000206040518060600160405290816000820160009054906101000a900473ffffffffffffffffffffffffffffffffffffffff1673ffffffffffffffffffffffffffffffffffffffff1673ffffffffffffffffffffffffffffffffffffffff1681526020016001820154815260200160028201805480602002602001604051908101604052809291908181526020016000905b82821015610dfb57838290600052602060002001805480602002602001604051908101604052809291908181526020016000905b82821015610de8578382906000526020600020018054600181600116156101000203166002900480601f016020809104026020016040519081016040528092919081815260200182805460018160011615610100020316600290048015610dd45780601f10610da957610100808354040283529160200191610dd4565b820191906000526020600020905b815481529060010190602001808311610db757829003601f168201915b505050505081526020019060010190610d2c565b5050505081526020019060010190610cf8565b5050505081525050826001830381518110610e1257fe5b60200260200101819052508080600101915050610c39565b50809350505050919050565b6003602052806000526040600020600091509050806000015490806001018054600181600116156101000203166002900480601f016020809104026020016040519081016040528092919081815260200182805460018160011615610100020316600290048015610ee85780601f10610ebd57610100808354040283529160200191610ee8565b820191906000526020600020905b815481529060010190602001808311610ecb57829003601f168201915b505050505090806002018054600181600116156101000203166002900480601f016020809104026020016040519081016040528092919081815260200182805460018160011615610100020316600290048015610f865780601f10610f5b57610100808354040283529160200191610f86565b820191906000526020600020905b815481529060010190602001808311610f6957829003601f168201915b505050505090806003015490806004018054600181600116156101000203166002900480601f01602080910402602001604051908101604052809291908181526020018280546001816001161561010002031660029004801561102a5780601f10610fff5761010080835404028352916020019161102a565b820191906000526020600020905b81548152906001019060200180831161100d57829003601f168201915b5050505050908060050160009054906101000a900473ffffffffffffffffffffffffffffffffffffffff16908060050160149054906101000a900460ff16908060060154908060070154905089565b600087116110bc576040517f08c379a00000000000000000000000000000000000000000000000000000000081526004016110b39061401b565b60405180910390fd5b6000865111611100576040517f08c379a00000000000000000000000000000000000000000000000000000000081526004016110f79061403b565b60405180910390fd5b6000855111611144576040517f08c379a000000000000000000000000000000000000000000000000000000000815260040161113b90613ffb565b60405180910390fd5b6000845111611188576040517f08c379a000000000000000000000000000000000000000000000000000000000815260040161117f9061405b565b60405180910390fd5b60008151116111cc576040517f08c379a00000000000000000000000000000000000000000000000000000000081526004016111c3906140fb565b60405180910390fd5b6111d4612c19565b600360008981526020019081526020016000206040518061012001604052908160008201548152602001600182018054600181600116156101000203166002900480601f0160208091040260200160405190810160405280929190818152602001828054600181600116156101000203166002900480156112965780601f1061126b57610100808354040283529160200191611296565b820191906000526020600020905b81548152906001019060200180831161127957829003601f168201915b50505050508152602001600282018054600181600116156101000203166002900480601f0160208091040260200160405190810160405280929190818152602001828054600181600116156101000203166002900480156113385780601f1061130d57610100808354040283529160200191611338565b820191906000526020600020905b81548152906001019060200180831161131b57829003601f168201915b5050505050815260200160038201548152602001600482018054600181600116156101000203166002900480601f0160208091040260200160405190810160405280929190818152602001828054600181600116156101000203166002900480156113e45780601f106113b9576101008083540402835291602001916113e4565b820191906000526020600020905b8154815290600101906020018083116113c757829003601f168201915b505050505081526020016005820160009054906101000a900473ffffffffffffffffffffffffffffffffffffffff1673ffffffffffffffffffffffffffffffffffffffff1673ffffffffffffffffffffffffffffffffffffffff1681526020016005820160149054906101000a900460ff161515151581526020016006820154815260200160078201548152505090503373ffffffffffffffffffffffffffffffffffffffff168160a0015173ffffffffffffffffffffffffffffffffffffffff16146114e6576040517f08c379a00000000000000000000000000000000000000000000000000000000081526004016114dd9061407b565b60405180910390fd5b6040518061012001604052808981526020018881526020018781526020014281526020018681526020013373ffffffffffffffffffffffffffffffffffffffff168152602001851515815260200184815260200182610100015181525090506000600190505b8251811161172957606083600183038151811061156557fe5b602002602001015160400151516040519080825280602002602001820160405280156115a557816020015b60608152602001906001900390816115905790505b50905060008090505b8460018403815181106115bd57fe5b60200260200101516040015151811015611623578460018403815181106115e057fe5b60200260200101516040015181815181106115f757fe5b602002602001015182828151811061160b57fe5b602002602001018190525080806001019150506115ae565b50604051806080016040528085600185038151811061163e57fe5b602002602001015160000151815260200185600185038151811061165e57fe5b602002602001015160200151815260200182815260200185600185038151811061168457fe5b602002602001015160600151815250600460008c815260200190815260200160002060008481526020019081526020016000206000820151816000015560208201518160010190805190602001906116dd929190612cdc565b5060408201518160020190805190602001906116fa929190612d5c565b506060820151816003019080519060200190611717929190612cdc565b5090505050808060010191505061154c565b5080600360008a8152602001908152602001600020600082015181600001556020820151816001019080519060200190611764929190612cdc565b506040820151816002019080519060200190611781929190612cdc565b506060820151816003015560808201518160040190805190602001906117a8929190612cdc565b5060a08201518160050160006101000a81548173ffffffffffffffffffffffffffffffffffffffff021916908373ffffffffffffffffffffffffffffffffffffffff16021790555060c08201518160050160146101000a81548160ff02191690831515021790555060e082015181600601556101008201518160070155905050877fb22a62001d0a307d5adc64b50a36055968e18b67edb9245b20b8705b88be9fc688884289338a8a8a8a610100015160405161186d99989796959493929190613f32565b60405180910390a25050505050505050565b6005602052816000526040600020602052806000526040600020600091509150508060000160009054906101000a900473ffffffffffffffffffffffffffffffffffffffff16908060010154905082565b6000865111611914576040517f08c379a000000000000000000000000000000000000000000000000000000000815260040161190b9061403b565b60405180910390fd5b6000855111611958576040517f08c379a000000000000000000000000000000000000000000000000000000000815260040161194f90613ffb565b60405180910390fd5b600084511161199c576040517f08c379a00000000000000000000000000000000000000000000000000000000081526004016119939061405b565b60405180910390fd5b60008151116119e0576040517f08c379a00000000000000000000000000000000000000000000000000000000081526004016119d7906140fb565b60405180910390fd5b600260008154809291906001019190505550600160003373ffffffffffffffffffffffffffffffffffffffff1673ffffffffffffffffffffffffffffffffffffffff1681526020019081526020016000206000815480929190600101919050555060405180610120016040528060025481526020018781526020018681526020014281526020018581526020013373ffffffffffffffffffffffffffffffffffffffff16815260200184151581526020018381526020016000815250600360006002548152602001908152602001600020600082015181600001556020820151816001019080519060200190611ad7929190612cdc565b506040820151816002019080519060200190611af4929190612cdc565b50606082015181600301556080820151816004019080519060200190611b1b929190612cdc565b5060a08201518160050160006101000a81548173ffffffffffffffffffffffffffffffffffffffff021916908373ffffffffffffffffffffffffffffffffffffffff16021790555060c08201518160050160146101000a81548160ff02191690831515021790555060e0820151816006015561010082015181600701559050506000600190505b81518111611d81576060826001830381518110611bbb57fe5b60200260200101516040015151604051908082528060200260200182016040528015611bfb57816020015b6060815260200190600190039081611be65790505b50905060008090505b836001840381518110611c1357fe5b60200260200101516040015151811015611c7957836001840381518110611c3657fe5b6020026020010151604001518181518110611c4d57fe5b6020026020010151828281518110611c6157fe5b60200260200101819052508080600101915050611c04565b506040518060800160405280846001850381518110611c9457fe5b6020026020010151600001518152602001846001850381518110611cb457fe5b6020026020010151602001518152602001828152602001846001850381518110611cda57fe5b6020026020010151606001518152506004600060025481526020019081526020016000206000848152602001908152602001600020600082015181600001556020820151816001019080519060200190611d35929190612cdc565b506040820151816002019080519060200190611d52929190612d5c565b506060820151816003019080519060200190611d6f929190612cdc565b50905050508080600101915050611ba2565b506002547f067031859f298b279580b64ec4be5b29ced6838d43dfafb25562734c797a5d1387874288338989896000604051611dc599989796959493929190613e89565b60405180910390a2505050505050565b611ddd612dbc565b611de5612c19565b600360008481526020019081526020016000206040518061012001604052908160008201548152602001600182018054600181600116156101000203166002900480601f016020809104026020016040519081016040528092919081815260200182805460018160011615610100020316600290048015611ea75780601f10611e7c57610100808354040283529160200191611ea7565b820191906000526020600020905b815481529060010190602001808311611e8a57829003601f168201915b50505050508152602001600282018054600181600116156101000203166002900480601f016020809104026020016040519081016040528092919081815260200182805460018160011615610100020316600290048015611f495780601f10611f1e57610100808354040283529160200191611f49565b820191906000526020600020905b815481529060010190602001808311611f2c57829003601f168201915b5050505050815260200160038201548152602001600482018054600181600116156101000203166002900480601f016020809104026020016040519081016040528092919081815260200182805460018160011615610100020316600290048015611ff55780601f10611fca57610100808354040283529160200191611ff5565b820191906000526020600020905b815481529060010190602001808311611fd857829003601f168201915b505050505081526020016005820160009054906101000a900473ffffffffffffffffffffffffffffffffffffffff1673ffffffffffffffffffffffffffffffffffffffff1673ffffffffffffffffffffffffffffffffffffffff1681526020016005820160149054906101000a900460ff1615151515815260200160068201548152602001600782015481525050905060008161010001519050612097612dbc565b6000600190505b8281116122ff573373ffffffffffffffffffffffffffffffffffffffff166005600086600001518152602001908152602001600020600083815260200190815260200160002060000160009054906101000a900473ffffffffffffffffffffffffffffffffffffffff1673ffffffffffffffffffffffffffffffffffffffff1614156122f257600560008560000151815260200190815260200160002060008281526020019081526020016000206040518060600160405290816000820160009054906101000a900473ffffffffffffffffffffffffffffffffffffffff1673ffffffffffffffffffffffffffffffffffffffff1673ffffffffffffffffffffffffffffffffffffffff1681526020016001820154815260200160028201805480602002602001604051908101604052809291908181526020016000905b828210156122df57838290600052602060002001805480602002602001604051908101604052809291908181526020016000905b828210156122cc578382906000526020600020018054600181600116156101000203166002900480601f0160208091040260200160405190810160405280929190818152602001828054600181600116156101000203166002900480156122b85780601f1061228d576101008083540402835291602001916122b8565b820191906000526020600020905b81548152906001019060200180831161229b57829003601f168201915b505050505081526020019060010190612210565b50505050815260200190600101906121dc565b5050505081525050945050505050612307565b808060010191505061209e565b508093505050505b919050565b60025481565b606080600160003373ffffffffffffffffffffffffffffffffffffffff1673ffffffffffffffffffffffffffffffffffffffff1681526020019081526020016000205460405190808252806020026020018201604052801561238e57816020015b61237b612df3565b8152602001906001900390816123735790505b50905060008090506000600190505b60025481116126db573373ffffffffffffffffffffffffffffffffffffffff166003600083815260200190815260200160002060050160009054906101000a900473ffffffffffffffffffffffffffffffffffffffff1673ffffffffffffffffffffffffffffffffffffffff1614156126ce57600360008281526020019081526020016000206040518061012001604052908160008201548152602001600182018054600181600116156101000203166002900480601f0160208091040260200160405190810160405280929190818152602001828054600181600116156101000203166002900480156124d25780601f106124a7576101008083540402835291602001916124d2565b820191906000526020600020905b8154815290600101906020018083116124b557829003601f168201915b50505050508152602001600282018054600181600116156101000203166002900480601f0160208091040260200160405190810160405280929190818152602001828054600181600116156101000203166002900480156125745780601f1061254957610100808354040283529160200191612574565b820191906000526020600020905b81548152906001019060200180831161255757829003601f168201915b5050505050815260200160038201548152602001600482018054600181600116156101000203166002900480601f0160208091040260200160405190810160405280929190818152602001828054600181600116156101000203166002900480156126205780601f106125f557610100808354040283529160200191612620565b820191906000526020600020905b81548152906001019060200180831161260357829003601f168201915b505050505081526020016005820160009054906101000a900473ffffffffffffffffffffffffffffffffffffffff1673ffffffffffffffffffffffffffffffffffffffff1673ffffffffffffffffffffffffffffffffffffffff1681526020016005820160149054906101000a900460ff16151515158152602001600682015481526020016007820154815250508383815181106126ba57fe5b602002602001018190525081806001019250505b808060010191505061239d565b50819250505090565b600460205281600052604060002060205280600052604060002060009150915050806000015490806001018054600181600116156101000203166002900480601f0160208091040260200160405190810160405280929190818152602001828054600181600116156101000203166002900480156127a35780601f10612778576101008083540402835291602001916127a3565b820191906000526020600020905b81548152906001019060200180831161278657829003601f168201915b505050505090806003018054600181600116156101000203166002900480601f0160208091040260200160405190810160405280929190818152602001828054600181600116156101000203166002900480156128415780601f1061281657610100808354040283529160200191612841565b820191906000526020600020905b81548152906001019060200180831161282457829003601f168201915b5050505050905083565b60008211801561285d57506002548211155b61289c576040517f08c379a00000000000000000000000000000000000000000000000000000000081526004016128939061401b565b60405180910390fd5b600073ffffffffffffffffffffffffffffffffffffffff166128bd83611dd5565b6000015173ffffffffffffffffffffffffffffffffffffffff1614612917576040517f08c379a000000000000000000000000000000000000000000000000000000000815260040161290e90613fdb565b60405180910390fd5b60006003600084815260200190815260200160002090508060050160149054906101000a900460ff1661297f576040517f08c379a0000000000000000000000000000000000000000000000000000000008152600401612976906140db565b60405180910390fd5b81518160060154146129c6576040517f08c379a00000000000000000000000000000000000000000000000000000000081526004016129bd906140bb565b60405180910390fd5b60008160070160008154600101919050819055905060608351604051908082528060200260200182016040528015612a1257816020015b60608152602001906001900390816129fd5790505b50905060008090505b8451811015612b11576060858281518110612a3257fe5b60200260200101516040015151604051908082528060200260200182016040528015612a7257816020015b6060815260200190600190039081612a5d5790505b50905060008090505b868381518110612a8757fe5b60200260200101516040015151811015612aea57868381518110612aa757fe5b6020026020010151604001518181518110612abe57fe5b6020026020010151828281518110612ad257fe5b60200260200101819052508080600101915050612a7b565b5080838381518110612af857fe5b6020026020010181905250508080600101915050612a1b565b5060405180606001604052803373ffffffffffffffffffffffffffffffffffffffff1681526020014281526020018281525060056000878152602001908152602001600020600084815260200190815260200160002060008201518160000160006101000a81548173ffffffffffffffffffffffffffffffffffffffff021916908373ffffffffffffffffffffffffffffffffffffffff160217905550602082015181600101556040820151816002019080519060200190612bd4929190612e57565b50905050847f67bb7dad45febb9acd2ef79dc0efa393e4b304294c10d464810099f6bbe74ccc3383604051612c0a929190613da8565b60405180910390a25050505050565b6040518061012001604052806000815260200160608152602001606081526020016000815260200160608152602001600073ffffffffffffffffffffffffffffffffffffffff16815260200160001515815260200160008152602001600081525090565b6040518060800160405280600081526020016060815260200160608152602001606081525090565b6040518060600160405280600073ffffffffffffffffffffffffffffffffffffffff16815260200160008152602001606081525090565b828054600181600116156101000203166002900490600052602060002090601f016020900481019282601f10612d1d57805160ff1916838001178555612d4b565b82800160010185558215612d4b579182015b82811115612d4a578251825591602001919060010190612d2f565b5b509050612d589190612eb7565b5090565b828054828255906000526020600020908101928215612dab579160200282015b82811115612daa578251829080519060200190612d9a929190612cdc565b5091602001919060010190612d7c565b5b509050612db89190612edc565b5090565b6040518060600160405280600073ffffffffffffffffffffffffffffffffffffffff16815260200160008152602001606081525090565b6040518061012001604052806000815260200160608152602001606081526020016000815260200160608152602001600073ffffffffffffffffffffffffffffffffffffffff16815260200160001515815260200160008152602001600081525090565b828054828255906000526020600020908101928215612ea6579160200282015b82811115612ea5578251829080519060200190612e95929190612d5c565b5091602001919060010190612e77565b5b509050612eb39190612f08565b5090565b612ed991905b80821115612ed5576000816000905550600101612ebd565b5090565b90565b612f0591905b80821115612f015760008181612ef89190612f34565b50600101612ee2565b5090565b90565b612f3191905b80821115612f2d5760008181612f249190612f7c565b50600101612f0e565b5090565b90565b50805460018160011615610100020316600290046000825580601f10612f5a5750612f79565b601f016020900490600052602060002090810190612f789190612eb7565b5b50565b5080546000825590600052602060002090810190612f9a9190612edc565b50565b600082601f830112612fae57600080fd5b8135612fc1612fbc8261426c565b61423f565b9150818183526020840193506020810190508360005b838110156130075781358601612fed888261309a565b845260208401935060208301925050600181019050612fd7565b5050505092915050565b600082601f83011261302257600080fd5b813561303561303082614294565b61423f565b9150818183526020840193506020810190508360005b8381101561307b57813586016130618882613142565b84526020840193506020830192505060018101905061304b565b5050505092915050565b60008135905061309481614585565b92915050565b600082601f8301126130ab57600080fd5b81356130be6130b9826142bc565b61423f565b915080825260208301602083018583830111156130da57600080fd5b6130e5838284614532565b50505092915050565b600082601f8301126130ff57600080fd5b813561311261310d826142e8565b61423f565b9150808252602083016020830185838301111561312e57600080fd5b613139838284614532565b50505092915050565b60006080828403121561315457600080fd5b61315e608061423f565b9050600061316e848285016131fe565b600083015250602082013567ffffffffffffffff81111561318e57600080fd5b61319a8482850161309a565b602083015250604082013567ffffffffffffffff8111156131ba57600080fd5b6131c684828501612f9d565b604083015250606082013567ffffffffffffffff8111156131e657600080fd5b6131f28482850161309a565b60608301525092915050565b60008135905061320d8161459c565b92915050565b60008060008060008060c0878903121561322c57600080fd5b600087013567ffffffffffffffff81111561324657600080fd5b61325289828a016130ee565b965050602087013567ffffffffffffffff81111561326f57600080fd5b61327b89828a016130ee565b955050604087013567ffffffffffffffff81111561329857600080fd5b6132a489828a016130ee565b94505060606132b589828a01613085565b93505060806132c689828a016131fe565b92505060a087013567ffffffffffffffff8111156132e357600080fd5b6132ef89828a01613011565b9150509295509295509295565b60006020828403121561330e57600080fd5b600061331c848285016131fe565b91505092915050565b6000806040838503121561333857600080fd5b6000613346858286016131fe565b925050602083013567ffffffffffffffff81111561336357600080fd5b61336f85828601613011565b9150509250929050565b600080600080600080600060e0888a03121561339457600080fd5b60006133a28a828b016131fe565b975050602088013567ffffffffffffffff8111156133bf57600080fd5b6133cb8a828b016130ee565b965050604088013567ffffffffffffffff8111156133e857600080fd5b6133f48a828b016130ee565b955050606088013567ffffffffffffffff81111561341157600080fd5b61341d8a828b016130ee565b945050608061342e8a828b01613085565b93505060a061343f8a828b016131fe565b92505060c088013567ffffffffffffffff81111561345c57600080fd5b6134688a828b01613011565b91505092959891949750929550565b6000806040838503121561348a57600080fd5b6000613498858286016131fe565b92505060206134a9858286016131fe565b9150509250929050565b60006134bf838361362e565b905092915050565b60006134d38383613868565b905092915050565b60006134e78383613ba6565b905092915050565b60006134fb8383613c17565b905092915050565b600061350f8383613d3a565b905092915050565b613520816144ea565b82525050565b61352f816144a2565b82525050565b61353e816144a2565b82525050565b600061354f8261437f565b613559818561442b565b93508360208202850161356b85614324565b8060005b858110156135a7578484038952815161358885826134b3565b9450613593836143d9565b925060208a0199505060018101905061356f565b50829750879550505050505092915050565b60006135c482614374565b6135ce818561441a565b9350836020820285016135e085614314565b8060005b8581101561361c57848403895281516135fd85826134b3565b9450613608836143cc565b925060208a019950506001810190506135e4565b50829750879550505050505092915050565b60006136398261438a565b613643818561443c565b93508360208202850161365585614334565b8060005b85811015613691578484038952815161367285826134c7565b945061367d836143e6565b925060208a01995050600181019050613659565b50829750879550505050505092915050565b60006136ae82614395565b6136b8818561444d565b9350836020820285016136ca85614344565b8060005b8581101561370657848403895281516136e785826134db565b94506136f2836143f3565b925060208a019950506001810190506136ce565b50829750879550505050505092915050565b6000613723826143a0565b61372d818561445e565b93508360208202850161373f85614354565b8060005b8581101561377b578484038952815161375c85826134ef565b945061376783614400565b925060208a01995050600181019050613743565b50829750879550505050505092915050565b6000613798826143ab565b6137a2818561446f565b9350836020820285016137b485614364565b8060005b858110156137f057848403895281516137d18582613503565b94506137dc8361440d565b925060208a019950506001810190506137b8565b50829750879550505050505092915050565b61380b816144b4565b82525050565b61381a816144b4565b82525050565b613829816144fc565b82525050565b600061383a826143c1565b6138448185614491565b9350613854818560208601614541565b61385d81614574565b840191505092915050565b6000613873826143b6565b61387d8185614480565b935061388d818560208601614541565b61389681614574565b840191505092915050565b60006138ac826143b6565b6138b68185614491565b93506138c6818560208601614541565b6138cf81614574565b840191505092915050565b60006138e7602583614491565b91507f596f75206861766520616c7265616479207375626d697474656420746869732060008301527f666f726d210000000000000000000000000000000000000000000000000000006020830152604082019050919050565b600061394d601d83614491565b91507f466f726d206465736372697074696f6e206973207265717572696564210000006000830152602082019050919050565b600061398d601383614491565b91507f466f726d20494420697320696e76616c696421000000000000000000000000006000830152602082019050919050565b60006139cd601783614491565b91507f466f726d207469746c65206973207265717572696564210000000000000000006000830152602082019050919050565b6000613a0d601a83614491565b91507f466f726d20656e642074696d65206973207265717572696564210000000000006000830152602082019050919050565b6000613a4d601483614491565b91507f556e617574686f72697a656420416363657373210000000000000000000000006000830152602082019050919050565b6000613a8d601483614491565b91507f556e617574686f72697a656420616363657373210000000000000000000000006000830152602082019050919050565b6000613acd602083614491565b91507f496e76616c6964206e6f2e206f66206669656c6473207375626d6974746564216000830152602082019050919050565b6000613b0d603083614491565b91507f5468697320666f726d206973206e6f742074616b696e6720746865207265737060008301527f6f6e73657320616e796d6f72652e2e2e000000000000000000000000000000006020830152604082019050919050565b6000613b73601d83614491565b91507f466f726d206e656564732061746c65617374206f6e65206669656c64210000006000830152602082019050919050565b6000608083016000830151613bbe6000860182613d8a565b5060208301518482036020860152613bd68282613868565b91505060408301518482036040860152613bf0828261362e565b91505060608301518482036060860152613c0a8282613868565b9150508091505092915050565b600061012083016000830151613c306000860182613d8a565b5060208301518482036020860152613c488282613868565b91505060408301518482036040860152613c628282613868565b9150506060830151613c776060860182613d8a565b5060808301518482036080860152613c8f8282613868565b91505060a0830151613ca460a0860182613526565b5060c0830151613cb760c0860182613802565b5060e0830151613cca60e0860182613d8a565b50610100830151613cdf610100860182613d8a565b508091505092915050565b6000606083016000830151613d026000860182613526565b506020830151613d156020860182613d8a565b5060408301518482036040860152613d2d82826135b9565b9150508091505092915050565b6000606083016000830151613d526000860182613526565b506020830151613d656020860182613d8a565b5060408301518482036040860152613d7d82826135b9565b9150508091505092915050565b613d93816144e0565b82525050565b613da2816144e0565b82525050565b6000604082019050613dbd6000830185613517565b8181036020830152613dcf8184613544565b90509392505050565b6000604082019050613ded6000830185613535565b613dfa6020830184613d99565b9392505050565b60006020820190508181036000830152613e1b81846136a3565b905092915050565b60006020820190508181036000830152613e3d8184613718565b905092915050565b60006020820190508181036000830152613e5f818461378d565b905092915050565b60006020820190508181036000830152613e8181846138a1565b905092915050565b6000610120820190508181036000830152613ea4818c61382f565b90508181036020830152613eb8818b61382f565b9050613ec7604083018a613d99565b8181036060830152613ed9818961382f565b9050613ee86080830188613517565b613ef560a0830187613811565b613f0260c0830186613d99565b81810360e0830152613f1481856136a3565b9050613f24610100830184613820565b9a9950505050505050505050565b6000610120820190508181036000830152613f4d818c61382f565b90508181036020830152613f61818b61382f565b9050613f70604083018a613d99565b8181036060830152613f82818961382f565b9050613f916080830188613517565b613f9e60a0830187613811565b613fab60c0830186613d99565b81810360e0830152613fbd81856136a3565b9050613fcd610100830184613d99565b9a9950505050505050505050565b60006020820190508181036000830152613ff4816138da565b9050919050565b6000602082019050818103600083015261401481613940565b9050919050565b6000602082019050818103600083015261403481613980565b9050919050565b60006020820190508181036000830152614054816139c0565b9050919050565b6000602082019050818103600083015261407481613a00565b9050919050565b6000602082019050818103600083015261409481613a40565b9050919050565b600060208201905081810360008301526140b481613a80565b9050919050565b600060208201905081810360008301526140d481613ac0565b9050919050565b600060208201905081810360008301526140f481613b00565b9050919050565b6000602082019050818103600083015261411481613b66565b9050919050565b600060208201905081810360008301526141358184613cea565b905092915050565b60006020820190506141526000830184613d99565b92915050565b600060608201905061416d6000830186613d99565b818103602083015261417f81856138a1565b9050818103604083015261419381846138a1565b9050949350505050565b6000610120820190506141b3600083018c613d99565b81810360208301526141c5818b6138a1565b905081810360408301526141d9818a6138a1565b90506141e86060830189613d99565b81810360808301526141fa81886138a1565b905061420960a0830187613535565b61421660c0830186613811565b61422360e0830185613d99565b614231610100830184613d99565b9a9950505050505050505050565b6000604051905081810181811067ffffffffffffffff8211171561426257600080fd5b8060405250919050565b600067ffffffffffffffff82111561428357600080fd5b602082029050602081019050919050565b600067ffffffffffffffff8211156142ab57600080fd5b602082029050602081019050919050565b600067ffffffffffffffff8211156142d357600080fd5b601f19601f8301169050602081019050919050565b600067ffffffffffffffff8211156142ff57600080fd5b601f19601f8301169050602081019050919050565b6000819050602082019050919050565b6000819050602082019050919050565b6000819050602082019050919050565b6000819050602082019050919050565b6000819050602082019050919050565b6000819050602082019050919050565b600081519050919050565b600081519050919050565b600081519050919050565b600081519050919050565b600081519050919050565b600081519050919050565b600081519050919050565b600081519050919050565b6000602082019050919050565b6000602082019050919050565b6000602082019050919050565b6000602082019050919050565b6000602082019050919050565b6000602082019050919050565b600082825260208201905092915050565b600082825260208201905092915050565b600082825260208201905092915050565b600082825260208201905092915050565b600082825260208201905092915050565b600082825260208201905092915050565b600082825260208201905092915050565b600082825260208201905092915050565b60006144ad826144c0565b9050919050565b60008115159050919050565b600073ffffffffffffffffffffffffffffffffffffffff82169050919050565b6000819050919050565b60006144f58261450e565b9050919050565b6000614507826144e0565b9050919050565b600061451982614520565b9050919050565b600061452b826144c0565b9050919050565b82818337600083830152505050565b60005b8381101561455f578082015181840152602081019050614544565b8381111561456e576000848401525b50505050565b6000601f19601f8301169050919050565b61458e816144b4565b811461459957600080fd5b50565b6145a5816144e0565b81146145b057600080fd5b5056fea365627a7a72315820b5fe9832329844b0ef97c55610fe9c0a759ab7c121be5df26bedbee95a2a9bec6c6578706572696d656e74616cf564736f6c63430005100040",
  "source": "pragma solidity ^0.5.0;\r\npragma experimental ABIEncoderV2;\r\n\r\ncontract FormsApp{\r\n\tstring public name;\r\n\r\n\t// Store forms...\r\n\tmapping(address=>uint)\tuserFormCount;\r\n\r\n\tuint public formsCount;\r\n\tmapping(uint => Form) public forms;\r\n\r\n\tstruct Form{\r\n\t\tuint id;\r\n\t\tstring title;\r\n\t\tstring description;\r\n\t\tuint timestamp;\r\n\t\tstring endTime;\r\n\t\taddress owner;\r\n\t\tbool allowResponse;\r\n\t\tuint fieldsCount;\r\n\t\tuint submissionsCount;\r\n\t}\r\n\r\n\t// Store fields...\r\n\tmapping(uint => mapping(uint => Field)) public fields; // formId=>Field\r\n\r\n\tstruct Field{\r\n\t\tuint id;\r\n\t\tstring title;\r\n\t\tstring[] options;\r\n\t\tstring fieldType;\r\n\t}\r\n\r\n\t// Store submissions...\r\n\tmapping(uint => mapping(uint => Submissions)) public submissions; // formId=>Submission\r\n\r\n\tstruct Submissions{\r\n\t\taddress user;\r\n\t\tuint timestamp;\r\n\t\tstring[][] answers;\r\n\t}\r\n\t\r\n\tevent NewFormCreated(uint indexed id, string title, string description, uint timestamp, string endTime, address owner, bool allowResponse, uint fieldsCount, Field[] fields, uint submissionsCount);\r\n\tevent FormEdited(uint indexed id, string title, string description, uint timestamp, string endTime, address owner, bool allowResponse, uint fieldsCount, Field[] fields, uint submissionsCount);\r\n\tevent FormSubmitted(uint indexed formId, address user, string[][] answers);\r\n\r\n\tconstructor() public{\r\n\t\tname = \"FormsApp\";\r\n\t\t\r\n\t\tformsCount=0;\r\n\t}\r\n\r\n\tfunction createForm(string memory _title, string memory _description, string memory _endTime, bool _allowResponse, uint _fieldsCount, Field[] memory _fields) public {\r\n\t\trequire(bytes(_title).length>0, \"Form title is requried!\");\r\n\t\trequire(bytes(_description).length>0, \"Form description is requried!\");\r\n\t\trequire(bytes(_endTime).length>0, \"Form end time is requried!\");\r\n\t\trequire(_fields.length>0, \"Form needs atleast one field!\");\r\n\t\t\r\n\t\tformsCount++;\r\n\t\tuserFormCount[msg.sender]++;\r\n\t\t// Field[] fields;\r\n\t\t\r\n\t\tforms[formsCount] = Form(formsCount, _title, _description, block.timestamp, _endTime, msg.sender, _allowResponse,  _fieldsCount, 0);\r\n\r\n\t\tfor(uint i=1; i<=_fields.length; i++){\r\n\t\t\t// fields[formsCount][i] = _fields[i-1];\r\n\t\t\tstring[] memory options = new string[](_fields[i-1].options.length);\r\n\t\t\tfor(uint j=0; j<_fields[i-1].options.length; j++){\r\n\t\t\t\toptions[j]=_fields[i-1].options[j];\r\n\t\t\t}\r\n\t\t\tfields[formsCount][i] = Field(_fields[i-1].id, _fields[i-1].title, options, _fields[i-1].fieldType);\r\n\t\t}\r\n\r\n\t\temit NewFormCreated(formsCount, _title, _description, block.timestamp, _endTime, msg.sender, _allowResponse, _fieldsCount, _fields,  0);\r\n\t}\r\n\t\r\n\tfunction editForm(uint _formId, string memory _title, string memory _description, string memory _endTime, bool _allowResponse, uint _fieldsCount, Field[] memory _fields) public {\r\n\t\trequire(_formId>0, \"Form ID is invalid!\");\r\n\t\trequire(bytes(_title).length>0, \"Form title is requried!\");\r\n\t\trequire(bytes(_description).length>0, \"Form description is requried!\");\r\n\t\trequire(bytes(_endTime).length>0, \"Form end time is requried!\");\r\n\t\trequire(_fields.length>0, \"Form needs atleast one field!\");\r\n\r\n\t\tForm memory form = forms[_formId];\r\n\r\n\t\trequire(form.owner == msg.sender, \"Unauthorized Access!\");\r\n\t\t\r\n\t\tform = Form(_formId, _title, _description, block.timestamp, _endTime, msg.sender, _allowResponse,  _fieldsCount, form.submissionsCount);\r\n\r\n\t\tfor(uint i=1; i<=_fields.length; i++){\r\n\t\t\t// fields[formsCount][i] = _fields[i-1];\r\n\t\t\tstring[] memory options = new string[](_fields[i-1].options.length);\r\n\t\t\tfor(uint j=0; j<_fields[i-1].options.length; j++){\r\n\t\t\t\toptions[j]=_fields[i-1].options[j];\r\n\t\t\t}\r\n\t\t\tfields[_formId][i] = Field(_fields[i-1].id, _fields[i-1].title, options, _fields[i-1].fieldType);\r\n\t\t}\r\n\r\n\t\tforms[_formId] = form;\r\n\r\n\t\temit FormEdited(_formId, _title, _description, block.timestamp, _endTime, msg.sender, _allowResponse, _fieldsCount, _fields, form.submissionsCount);\r\n\t}\r\n\r\n\tfunction submitForm(uint _formId, Field[] memory _fields) public{\r\n\t\trequire(_formId>0 && _formId<=formsCount, \"Form ID is invalid!\");\r\n\t\trequire(getUserSubmission(_formId).user == address(0x0), \"You have already submitted this form!\");\r\n\r\n\t\t// Get form \r\n\t\tForm storage _form = forms[_formId];\r\n\r\n\t\trequire(_form.allowResponse, \"This form is not taking the responses anymore...\");\r\n\t\trequire(_form.fieldsCount == _fields.length, \"Invalid no. of fields submitted!\");\r\n\r\n\t\t// Increase submission count\r\n\t\tuint _submissionsCount = ++_form.submissionsCount;\r\n\r\n\t\t// Store answers\r\n\t\tstring[][] memory answers = new string[][](_fields.length);\r\n\t\tfor(uint i=0; i<_fields.length; i++){\r\n\t\t\tstring[] memory _answers = new string[](_fields[i].options.length);\r\n\t\t\t\r\n\t\t\tfor(uint j=0; j<_fields[i].options.length; j++){\r\n\t\t\t\t_answers[j]=_fields[i].options[j];\r\n\t\t\t}\r\n\t\t\tanswers[i]=_answers;\r\n\t\t}\r\n\t\t\r\n\t\t// Store submissions\r\n\t\tsubmissions[_formId][_submissionsCount] = Submissions(msg.sender, block.timestamp, answers);\r\n\t\t\r\n\t\t// Emit event\r\n\t\temit FormSubmitted(_formId, msg.sender, answers);\r\n\t}\r\n\r\n\tfunction getForms() public view returns (Form[] memory){\r\n\t\tForm[] memory _forms = new Form[](userFormCount[msg.sender]);\r\n\t\tuint j=0;\r\n\t\tfor(uint i=1; i<=formsCount; i++){\r\n\t\t\tif(forms[i].owner==msg.sender){\r\n\t\t\t\t_forms[j]=forms[i];\r\n                j++;\r\n\t\t\t}\r\n\t\t}\r\n\r\n\t\treturn _forms;\r\n\t}\r\n\r\n\tfunction getFields(uint _formId) public view returns(Field[] memory){\r\n\t\tForm memory _form = forms[_formId];\r\n\r\n\t\tuint _fieldsCount = _form.fieldsCount;\r\n\t\tField[] memory _fields = new Field[](_fieldsCount);\r\n\t\t\r\n\t\tfor(uint i=1; i<=_fieldsCount; i++){\r\n\t\t\t\t_fields[i-1]=fields[_form.id][i];\r\n\t\t}\r\n\r\n\t\treturn _fields;\r\n\t}\r\n\t\r\n\tfunction getSubmissions(uint _formId) public view returns(Submissions[] memory){\r\n\t\tForm memory _form = forms[_formId];\r\n\r\n\t\trequire(msg.sender == _form.owner, \"Unauthorized access!\");\r\n\r\n\t\tuint _submissionsCount = _form.submissionsCount;\r\n\t\tSubmissions[] memory _submissions = new Submissions[](_submissionsCount);\r\n\t\t\r\n\t\tfor(uint i=1; i<=_submissionsCount; i++){\r\n\t\t\t\t_submissions[i-1]=submissions[_form.id][i];\r\n\t\t}\r\n\r\n\t\treturn _submissions;\r\n\t}\r\n\t\r\n\tfunction getUserSubmission(uint _formId) public view returns(Submissions memory){\r\n\t\tForm memory _form = forms[_formId];\r\n\t\tuint _submissionsCount = _form.submissionsCount;\r\n\r\n\t\tSubmissions memory _submissions;\r\n\t\t\r\n\t\tfor(uint i=1; i<=_submissionsCount; i++){\r\n\t\t\tif(submissions[_form.id][i].user == msg.sender){\r\n\t\t\t\treturn submissions[_form.id][i];\r\n\t\t\t}\r\n\t\t}\r\n\r\n\t\treturn _submissions;\r\n\t}\r\n}",
  "sourcePath": "D:\\Engineering\\Dev\\Blockchain Development\\Projects\\FormsApp\\src\\contracts\\FormsApp.sol",
  "compiler": {
    "name": "solc",
    "version": "0.5.16+commit.9c3226ce.Emscripten.clang"
  },
  "schemaVersion": "3.4.3",
  "updatedAt": "2022-03-31T09:37:37.460Z",
  "networkType": "ethereum",
  "devdoc": {
    "methods": {}
  },
  "userdoc": {
    "methods": {}
  }
}