{
  "contractName": "FormsApp",
  "abi": [
    {
      "inputs": [],
      "payable": false,
      "stateMutability": "nonpayable",
      "type": "constructor"
    },
    {
      "anonymous": false,
      "inputs": [
        {
          "indexed": true,
          "internalType": "uint256",
          "name": "id",
          "type": "uint256"
        },
        {
          "indexed": false,
          "internalType": "string",
          "name": "title",
          "type": "string"
        },
        {
          "indexed": false,
          "internalType": "string",
          "name": "description",
          "type": "string"
        },
        {
          "indexed": false,
          "internalType": "uint256",
          "name": "timestamp",
          "type": "uint256"
        },
        {
          "indexed": false,
          "internalType": "string",
          "name": "endTime",
          "type": "string"
        },
        {
          "indexed": false,
          "internalType": "address",
          "name": "owner",
          "type": "address"
        },
        {
          "indexed": false,
          "internalType": "bool",
          "name": "allowResponse",
          "type": "bool"
        },
        {
          "indexed": false,
          "internalType": "uint256",
          "name": "fieldsCount",
          "type": "uint256"
        },
        {
          "components": [
            {
              "internalType": "uint256",
              "name": "id",
              "type": "uint256"
            },
            {
              "internalType": "string",
              "name": "title",
              "type": "string"
            },
            {
              "internalType": "string[]",
              "name": "options",
              "type": "string[]"
            },
            {
              "internalType": "string",
              "name": "fieldType",
              "type": "string"
            }
          ],
          "indexed": false,
          "internalType": "struct FormsApp.Field[]",
          "name": "fields",
          "type": "tuple[]"
        },
        {
          "indexed": false,
          "internalType": "uint256",
          "name": "submissionsCount",
          "type": "uint256"
        }
      ],
      "name": "FormEdited",
      "type": "event"
    },
    {
      "anonymous": false,
      "inputs": [
        {
          "indexed": true,
          "internalType": "uint256",
          "name": "id",
          "type": "uint256"
        },
        {
          "indexed": false,
          "internalType": "string",
          "name": "title",
          "type": "string"
        },
        {
          "indexed": false,
          "internalType": "string",
          "name": "description",
          "type": "string"
        },
        {
          "indexed": false,
          "internalType": "uint256",
          "name": "timestamp",
          "type": "uint256"
        },
        {
          "indexed": false,
          "internalType": "string",
          "name": "endTime",
          "type": "string"
        },
        {
          "indexed": false,
          "internalType": "address",
          "name": "owner",
          "type": "address"
        },
        {
          "indexed": false,
          "internalType": "bool",
          "name": "allowResponse",
          "type": "bool"
        },
        {
          "indexed": false,
          "internalType": "uint256",
          "name": "fieldsCount",
          "type": "uint256"
        },
        {
          "components": [
            {
              "internalType": "uint256",
              "name": "id",
              "type": "uint256"
            },
            {
              "internalType": "string",
              "name": "title",
              "type": "string"
            },
            {
              "internalType": "string[]",
              "name": "options",
              "type": "string[]"
            },
            {
              "internalType": "string",
              "name": "fieldType",
              "type": "string"
            }
          ],
          "indexed": false,
          "internalType": "struct FormsApp.Field[]",
          "name": "fields",
          "type": "tuple[]"
        },
        {
          "indexed": false,
          "internalType": "uint256",
          "name": "submissionsCount",
          "type": "uint256"
        }
      ],
      "name": "NewFormCreated",
      "type": "event"
    },
    {
      "constant": true,
      "inputs": [
        {
          "internalType": "uint256",
          "name": "",
          "type": "uint256"
        },
        {
          "internalType": "uint256",
          "name": "",
          "type": "uint256"
        }
      ],
      "name": "fields",
      "outputs": [
        {
          "internalType": "uint256",
          "name": "id",
          "type": "uint256"
        },
        {
          "internalType": "string",
          "name": "title",
          "type": "string"
        },
        {
          "internalType": "string",
          "name": "fieldType",
          "type": "string"
        }
      ],
      "payable": false,
      "stateMutability": "view",
      "type": "function"
    },
    {
      "constant": true,
      "inputs": [
        {
          "internalType": "uint256",
          "name": "",
          "type": "uint256"
        }
      ],
      "name": "forms",
      "outputs": [
        {
          "internalType": "uint256",
          "name": "id",
          "type": "uint256"
        },
        {
          "internalType": "string",
          "name": "title",
          "type": "string"
        },
        {
          "internalType": "string",
          "name": "description",
          "type": "string"
        },
        {
          "internalType": "uint256",
          "name": "timestamp",
          "type": "uint256"
        },
        {
          "internalType": "string",
          "name": "endTime",
          "type": "string"
        },
        {
          "internalType": "address",
          "name": "owner",
          "type": "address"
        },
        {
          "internalType": "bool",
          "name": "allowResponse",
          "type": "bool"
        },
        {
          "internalType": "uint256",
          "name": "fieldsCount",
          "type": "uint256"
        },
        {
          "internalType": "uint256",
          "name": "submissionsCount",
          "type": "uint256"
        }
      ],
      "payable": false,
      "stateMutability": "view",
      "type": "function"
    },
    {
      "constant": true,
      "inputs": [],
      "name": "formsCount",
      "outputs": [
        {
          "internalType": "uint256",
          "name": "",
          "type": "uint256"
        }
      ],
      "payable": false,
      "stateMutability": "view",
      "type": "function"
    },
    {
      "constant": true,
      "inputs": [],
      "name": "name",
      "outputs": [
        {
          "internalType": "string",
          "name": "",
          "type": "string"
        }
      ],
      "payable": false,
      "stateMutability": "view",
      "type": "function"
    },
    {
      "constant": false,
      "inputs": [
        {
          "internalType": "string",
          "name": "_title",
          "type": "string"
        },
        {
          "internalType": "string",
          "name": "_description",
          "type": "string"
        },
        {
          "internalType": "string",
          "name": "_endTime",
          "type": "string"
        },
        {
          "internalType": "bool",
          "name": "_allowResponse",
          "type": "bool"
        },
        {
          "internalType": "uint256",
          "name": "_fieldsCount",
          "type": "uint256"
        },
        {
          "components": [
            {
              "internalType": "uint256",
              "name": "id",
              "type": "uint256"
            },
            {
              "internalType": "string",
              "name": "title",
              "type": "string"
            },
            {
              "internalType": "string[]",
              "name": "options",
              "type": "string[]"
            },
            {
              "internalType": "string",
              "name": "fieldType",
              "type": "string"
            }
          ],
          "internalType": "struct FormsApp.Field[]",
          "name": "_fields",
          "type": "tuple[]"
        }
      ],
      "name": "createForm",
      "outputs": [],
      "payable": false,
      "stateMutability": "nonpayable",
      "type": "function"
    },
    {
      "constant": false,
      "inputs": [
        {
          "internalType": "uint256",
          "name": "_formId",
          "type": "uint256"
        },
        {
          "internalType": "string",
          "name": "_title",
          "type": "string"
        },
        {
          "internalType": "string",
          "name": "_description",
          "type": "string"
        },
        {
          "internalType": "string",
          "name": "_endTime",
          "type": "string"
        },
        {
          "internalType": "bool",
          "name": "_allowResponse",
          "type": "bool"
        },
        {
          "internalType": "uint256",
          "name": "_fieldsCount",
          "type": "uint256"
        },
        {
          "components": [
            {
              "internalType": "uint256",
              "name": "id",
              "type": "uint256"
            },
            {
              "internalType": "string",
              "name": "title",
              "type": "string"
            },
            {
              "internalType": "string[]",
              "name": "options",
              "type": "string[]"
            },
            {
              "internalType": "string",
              "name": "fieldType",
              "type": "string"
            }
          ],
          "internalType": "struct FormsApp.Field[]",
          "name": "_fields",
          "type": "tuple[]"
        }
      ],
      "name": "editForm",
      "outputs": [],
      "payable": false,
      "stateMutability": "nonpayable",
      "type": "function"
    },
    {
      "constant": true,
      "inputs": [],
      "name": "getForms",
      "outputs": [
        {
          "components": [
            {
              "internalType": "uint256",
              "name": "id",
              "type": "uint256"
            },
            {
              "internalType": "string",
              "name": "title",
              "type": "string"
            },
            {
              "internalType": "string",
              "name": "description",
              "type": "string"
            },
            {
              "internalType": "uint256",
              "name": "timestamp",
              "type": "uint256"
            },
            {
              "internalType": "string",
              "name": "endTime",
              "type": "string"
            },
            {
              "internalType": "address",
              "name": "owner",
              "type": "address"
            },
            {
              "internalType": "bool",
              "name": "allowResponse",
              "type": "bool"
            },
            {
              "internalType": "uint256",
              "name": "fieldsCount",
              "type": "uint256"
            },
            {
              "internalType": "uint256",
              "name": "submissionsCount",
              "type": "uint256"
            }
          ],
          "internalType": "struct FormsApp.Form[]",
          "name": "",
          "type": "tuple[]"
        }
      ],
      "payable": false,
      "stateMutability": "view",
      "type": "function"
    },
    {
      "constant": true,
      "inputs": [
        {
          "internalType": "uint256",
          "name": "_formId",
          "type": "uint256"
        }
      ],
      "name": "getFields",
      "outputs": [
        {
          "components": [
            {
              "internalType": "uint256",
              "name": "id",
              "type": "uint256"
            },
            {
              "internalType": "string",
              "name": "title",
              "type": "string"
            },
            {
              "internalType": "string[]",
              "name": "options",
              "type": "string[]"
            },
            {
              "internalType": "string",
              "name": "fieldType",
              "type": "string"
            }
          ],
          "internalType": "struct FormsApp.Field[]",
          "name": "",
          "type": "tuple[]"
        }
      ],
      "payable": false,
      "stateMutability": "view",
      "type": "function"
    }
  ],
  "bytecode": "0x60806040523480156200001157600080fd5b506040518060400160405280600881526020017f466f726d73417070000000000000000000000000000000000000000000000000815250600090805190602001906200005f9291906200006e565b5060006002819055506200011d565b828054600181600116156101000203166002900490600052602060002090601f016020900481019282601f10620000b157805160ff1916838001178555620000e2565b82800160010185558215620000e2579182015b82811115620000e1578251825591602001919060010190620000c4565b5b509050620000f19190620000f5565b5090565b6200011a91905b8082111562000116576000816000905550600101620000fc565b5090565b90565b612fb4806200012d6000396000f3fe608060405234801561001057600080fd5b50600436106100885760003560e01c80638c10e9041161005b5780638c10e9041461012f578063c56ad1a51461014b578063c5e6e68914610169578063e19b4fae1461018757610088565b806306fdde031461008d5780630f0cb228146100ab57806318c864e3146100db57806367bc5da714610113575b600080fd5b6100956101b9565b6040516100a29190612972565b60405180910390f35b6100c560048036036100c09190810190612249565b610257565b6040516100d2919061292e565b60405180910390f35b6100f560048036036100f09190810190612249565b6107f4565b60405161010a99989796959493929190612c06565b60405180910390f35b61012d60048036036101289190810190612272565b610a37565b005b61014960048036036101449190810190612160565b61123d565b005b610153611742565b6040516101609190612ba6565b60405180910390f35b610171611748565b60405161017e9190612950565b60405180910390f35b6101a1600480360361019c9190810190612370565b611b1a565b6040516101b093929190612bc1565b60405180910390f35b60008054600181600116156101000203166002900480601f01602080910402602001604051908101604052809291908181526020018280546001816001161561010002031660029004801561024f5780601f106102245761010080835404028352916020019161024f565b820191906000526020600020905b81548152906001019060200180831161023257829003601f168201915b505050505081565b6060610261611c81565b600360008481526020019081526020016000206040518061012001604052908160008201548152602001600182018054600181600116156101000203166002900480601f0160208091040260200160405190810160405280929190818152602001828054600181600116156101000203166002900480156103235780601f106102f857610100808354040283529160200191610323565b820191906000526020600020905b81548152906001019060200180831161030657829003601f168201915b50505050508152602001600282018054600181600116156101000203166002900480601f0160208091040260200160405190810160405280929190818152602001828054600181600116156101000203166002900480156103c55780601f1061039a576101008083540402835291602001916103c5565b820191906000526020600020905b8154815290600101906020018083116103a857829003601f168201915b5050505050815260200160038201548152602001600482018054600181600116156101000203166002900480601f0160208091040260200160405190810160405280929190818152602001828054600181600116156101000203166002900480156104715780601f1061044657610100808354040283529160200191610471565b820191906000526020600020905b81548152906001019060200180831161045457829003601f168201915b505050505081526020016005820160009054906101000a900473ffffffffffffffffffffffffffffffffffffffff1673ffffffffffffffffffffffffffffffffffffffff1673ffffffffffffffffffffffffffffffffffffffff1681526020016005820160149054906101000a900460ff1615151515815260200160068201548152602001600782015481525050905060008160e00151905060608160405190808252806020026020018201604052801561054657816020015b610533611ce5565b81526020019060019003908161052b5790505b5090506000600190505b8281116107e8576004600085600001518152602001908152602001600020600082815260200190815260200160002060405180608001604052908160008201548152602001600182018054600181600116156101000203166002900480601f01602080910402602001604051908101604052809291908181526020018280546001816001161561010002031660029004801561062d5780601f106106025761010080835404028352916020019161062d565b820191906000526020600020905b81548152906001019060200180831161061057829003601f168201915b5050505050815260200160028201805480602002602001604051908101604052809291908181526020016000905b82821015610717578382906000526020600020018054600181600116156101000203166002900480601f0160208091040260200160405190810160405280929190818152602001828054600181600116156101000203166002900480156107035780601f106106d857610100808354040283529160200191610703565b820191906000526020600020905b8154815290600101906020018083116106e657829003601f168201915b50505050508152602001906001019061065b565b505050508152602001600382018054600181600116156101000203166002900480601f0160208091040260200160405190810160405280929190818152602001828054600181600116156101000203166002900480156107b85780601f1061078d576101008083540402835291602001916107b8565b820191906000526020600020905b81548152906001019060200180831161079b57829003601f168201915b5050505050815250508260018303815181106107d057fe5b60200260200101819052508080600101915050610550565b50809350505050919050565b6003602052806000526040600020600091509050806000015490806001018054600181600116156101000203166002900480601f0160208091040260200160405190810160405280929190818152602001828054600181600116156101000203166002900480156108a65780601f1061087b576101008083540402835291602001916108a6565b820191906000526020600020905b81548152906001019060200180831161088957829003601f168201915b505050505090806002018054600181600116156101000203166002900480601f0160208091040260200160405190810160405280929190818152602001828054600181600116156101000203166002900480156109445780601f1061091957610100808354040283529160200191610944565b820191906000526020600020905b81548152906001019060200180831161092757829003601f168201915b505050505090806003015490806004018054600181600116156101000203166002900480601f0160208091040260200160405190810160405280929190818152602001828054600181600116156101000203166002900480156109e85780601f106109bd576101008083540402835291602001916109e8565b820191906000526020600020905b8154815290600101906020018083116109cb57829003601f168201915b5050505050908060050160009054906101000a900473ffffffffffffffffffffffffffffffffffffffff16908060050160149054906101000a900460ff16908060060154908060070154905089565b60008711610a7a576040517f08c379a0000000000000000000000000000000000000000000000000000000008152600401610a7190612b06565b60405180910390fd5b6000865111610abe576040517f08c379a0000000000000000000000000000000000000000000000000000000008152600401610ab590612b26565b60405180910390fd5b6000855111610b02576040517f08c379a0000000000000000000000000000000000000000000000000000000008152600401610af990612ae6565b60405180910390fd5b6000845111610b46576040517f08c379a0000000000000000000000000000000000000000000000000000000008152600401610b3d90612b46565b60405180910390fd5b6000815111610b8a576040517f08c379a0000000000000000000000000000000000000000000000000000000008152600401610b8190612b86565b60405180910390fd5b610b92611c81565b600360008981526020019081526020016000206040518061012001604052908160008201548152602001600182018054600181600116156101000203166002900480601f016020809104026020016040519081016040528092919081815260200182805460018160011615610100020316600290048015610c545780601f10610c2957610100808354040283529160200191610c54565b820191906000526020600020905b815481529060010190602001808311610c3757829003601f168201915b50505050508152602001600282018054600181600116156101000203166002900480601f016020809104026020016040519081016040528092919081815260200182805460018160011615610100020316600290048015610cf65780601f10610ccb57610100808354040283529160200191610cf6565b820191906000526020600020905b815481529060010190602001808311610cd957829003601f168201915b5050505050815260200160038201548152602001600482018054600181600116156101000203166002900480601f016020809104026020016040519081016040528092919081815260200182805460018160011615610100020316600290048015610da25780601f10610d7757610100808354040283529160200191610da2565b820191906000526020600020905b815481529060010190602001808311610d8557829003601f168201915b505050505081526020016005820160009054906101000a900473ffffffffffffffffffffffffffffffffffffffff1673ffffffffffffffffffffffffffffffffffffffff1673ffffffffffffffffffffffffffffffffffffffff1681526020016005820160149054906101000a900460ff161515151581526020016006820154815260200160078201548152505090503373ffffffffffffffffffffffffffffffffffffffff168160a0015173ffffffffffffffffffffffffffffffffffffffff1614610ea4576040517f08c379a0000000000000000000000000000000000000000000000000000000008152600401610e9b90612b66565b60405180910390fd5b6040518061012001604052808981526020018881526020018781526020014281526020018681526020013373ffffffffffffffffffffffffffffffffffffffff168152602001851515815260200184815260200182610100015181525090506000600190505b825181116110e7576060836001830381518110610f2357fe5b60200260200101516040015151604051908082528060200260200182016040528015610f6357816020015b6060815260200190600190039081610f4e5790505b50905060008090505b846001840381518110610f7b57fe5b60200260200101516040015151811015610fe157846001840381518110610f9e57fe5b6020026020010151604001518181518110610fb557fe5b6020026020010151828281518110610fc957fe5b60200260200101819052508080600101915050610f6c565b506040518060800160405280856001850381518110610ffc57fe5b602002602001015160000151815260200185600185038151811061101c57fe5b602002602001015160200151815260200182815260200185600185038151811061104257fe5b602002602001015160600151815250600460008c8152602001908152602001600020600084815260200190815260200160002060008201518160000155602082015181600101908051906020019061109b929190611d0d565b5060408201518160020190805190602001906110b8929190611d8d565b5060608201518160030190805190602001906110d5929190611d0d565b50905050508080600101915050610f0a565b5080600360008a8152602001908152602001600020600082015181600001556020820151816001019080519060200190611122929190611d0d565b50604082015181600201908051906020019061113f929190611d0d565b50606082015181600301556080820151816004019080519060200190611166929190611d0d565b5060a08201518160050160006101000a81548173ffffffffffffffffffffffffffffffffffffffff021916908373ffffffffffffffffffffffffffffffffffffffff16021790555060c08201518160050160146101000a81548160ff02191690831515021790555060e082015181600601556101008201518160070155905050877fb22a62001d0a307d5adc64b50a36055968e18b67edb9245b20b8705b88be9fc688884289338a8a8a8a610100015160405161122b99989796959493929190612a3d565b60405180910390a25050505050505050565b6000865111611281576040517f08c379a000000000000000000000000000000000000000000000000000000000815260040161127890612b26565b60405180910390fd5b60008551116112c5576040517f08c379a00000000000000000000000000000000000000000000000000000000081526004016112bc90612ae6565b60405180910390fd5b6000845111611309576040517f08c379a000000000000000000000000000000000000000000000000000000000815260040161130090612b46565b60405180910390fd5b600081511161134d576040517f08c379a000000000000000000000000000000000000000000000000000000000815260040161134490612b86565b60405180910390fd5b600260008154809291906001019190505550600160003373ffffffffffffffffffffffffffffffffffffffff1673ffffffffffffffffffffffffffffffffffffffff1681526020019081526020016000206000815480929190600101919050555060405180610120016040528060025481526020018781526020018681526020014281526020018581526020013373ffffffffffffffffffffffffffffffffffffffff16815260200184151581526020018381526020016000815250600360006002548152602001908152602001600020600082015181600001556020820151816001019080519060200190611444929190611d0d565b506040820151816002019080519060200190611461929190611d0d565b50606082015181600301556080820151816004019080519060200190611488929190611d0d565b5060a08201518160050160006101000a81548173ffffffffffffffffffffffffffffffffffffffff021916908373ffffffffffffffffffffffffffffffffffffffff16021790555060c08201518160050160146101000a81548160ff02191690831515021790555060e0820151816006015561010082015181600701559050506000600190505b815181116116ee57606082600183038151811061152857fe5b6020026020010151604001515160405190808252806020026020018201604052801561156857816020015b60608152602001906001900390816115535790505b50905060008090505b83600184038151811061158057fe5b602002602001015160400151518110156115e6578360018403815181106115a357fe5b60200260200101516040015181815181106115ba57fe5b60200260200101518282815181106115ce57fe5b60200260200101819052508080600101915050611571565b50604051806080016040528084600185038151811061160157fe5b602002602001015160000151815260200184600185038151811061162157fe5b602002602001015160200151815260200182815260200184600185038151811061164757fe5b60200260200101516060015181525060046000600254815260200190815260200160002060008481526020019081526020016000206000820151816000015560208201518160010190805190602001906116a2929190611d0d565b5060408201518160020190805190602001906116bf929190611d8d565b5060608201518160030190805190602001906116dc929190611d0d565b5090505050808060010191505061150f565b506002547f067031859f298b279580b64ec4be5b29ced6838d43dfafb25562734c797a5d138787428833898989600060405161173299989796959493929190612994565b60405180910390a2505050505050565b60025481565b606080600160003373ffffffffffffffffffffffffffffffffffffffff1673ffffffffffffffffffffffffffffffffffffffff168152602001908152602001600020546040519080825280602002602001820160405280156117c457816020015b6117b1611ded565b8152602001906001900390816117a95790505b50905060008090506000600190505b6002548111611b11573373ffffffffffffffffffffffffffffffffffffffff166003600083815260200190815260200160002060050160009054906101000a900473ffffffffffffffffffffffffffffffffffffffff1673ffffffffffffffffffffffffffffffffffffffff161415611b0457600360008281526020019081526020016000206040518061012001604052908160008201548152602001600182018054600181600116156101000203166002900480601f0160208091040260200160405190810160405280929190818152602001828054600181600116156101000203166002900480156119085780601f106118dd57610100808354040283529160200191611908565b820191906000526020600020905b8154815290600101906020018083116118eb57829003601f168201915b50505050508152602001600282018054600181600116156101000203166002900480601f0160208091040260200160405190810160405280929190818152602001828054600181600116156101000203166002900480156119aa5780601f1061197f576101008083540402835291602001916119aa565b820191906000526020600020905b81548152906001019060200180831161198d57829003601f168201915b5050505050815260200160038201548152602001600482018054600181600116156101000203166002900480601f016020809104026020016040519081016040528092919081815260200182805460018160011615610100020316600290048015611a565780601f10611a2b57610100808354040283529160200191611a56565b820191906000526020600020905b815481529060010190602001808311611a3957829003601f168201915b505050505081526020016005820160009054906101000a900473ffffffffffffffffffffffffffffffffffffffff1673ffffffffffffffffffffffffffffffffffffffff1673ffffffffffffffffffffffffffffffffffffffff1681526020016005820160149054906101000a900460ff1615151515815260200160068201548152602001600782015481525050838381518110611af057fe5b602002602001018190525081806001019250505b80806001019150506117d3565b50819250505090565b600460205281600052604060002060205280600052604060002060009150915050806000015490806001018054600181600116156101000203166002900480601f016020809104026020016040519081016040528092919081815260200182805460018160011615610100020316600290048015611bd95780601f10611bae57610100808354040283529160200191611bd9565b820191906000526020600020905b815481529060010190602001808311611bbc57829003601f168201915b505050505090806003018054600181600116156101000203166002900480601f016020809104026020016040519081016040528092919081815260200182805460018160011615610100020316600290048015611c775780601f10611c4c57610100808354040283529160200191611c77565b820191906000526020600020905b815481529060010190602001808311611c5a57829003601f168201915b5050505050905083565b6040518061012001604052806000815260200160608152602001606081526020016000815260200160608152602001600073ffffffffffffffffffffffffffffffffffffffff16815260200160001515815260200160008152602001600081525090565b6040518060800160405280600081526020016060815260200160608152602001606081525090565b828054600181600116156101000203166002900490600052602060002090601f016020900481019282601f10611d4e57805160ff1916838001178555611d7c565b82800160010185558215611d7c579182015b82811115611d7b578251825591602001919060010190611d60565b5b509050611d899190611e51565b5090565b828054828255906000526020600020908101928215611ddc579160200282015b82811115611ddb578251829080519060200190611dcb929190611d0d565b5091602001919060010190611dad565b5b509050611de99190611e76565b5090565b6040518061012001604052806000815260200160608152602001606081526020016000815260200160608152602001600073ffffffffffffffffffffffffffffffffffffffff16815260200160001515815260200160008152602001600081525090565b611e7391905b80821115611e6f576000816000905550600101611e57565b5090565b90565b611e9f91905b80821115611e9b5760008181611e929190611ea2565b50600101611e7c565b5090565b90565b50805460018160011615610100020316600290046000825580601f10611ec85750611ee7565b601f016020900490600052602060002090810190611ee69190611e51565b5b50565b600082601f830112611efb57600080fd5b8135611f0e611f0982612cd5565b612ca8565b9150818183526020840193506020810190508360005b83811015611f545781358601611f3a8882611fe7565b845260208401935060208301925050600181019050611f24565b5050505092915050565b600082601f830112611f6f57600080fd5b8135611f82611f7d82612cfd565b612ca8565b9150818183526020840193506020810190508360005b83811015611fc85781358601611fae888261208f565b845260208401935060208301925050600181019050611f98565b5050505092915050565b600081359050611fe181612f43565b92915050565b600082601f830112611ff857600080fd5b813561200b61200682612d25565b612ca8565b9150808252602083016020830185838301111561202757600080fd5b612032838284612ef0565b50505092915050565b600082601f83011261204c57600080fd5b813561205f61205a82612d51565b612ca8565b9150808252602083016020830185838301111561207b57600080fd5b612086838284612ef0565b50505092915050565b6000608082840312156120a157600080fd5b6120ab6080612ca8565b905060006120bb8482850161214b565b600083015250602082013567ffffffffffffffff8111156120db57600080fd5b6120e784828501611fe7565b602083015250604082013567ffffffffffffffff81111561210757600080fd5b61211384828501611eea565b604083015250606082013567ffffffffffffffff81111561213357600080fd5b61213f84828501611fe7565b60608301525092915050565b60008135905061215a81612f5a565b92915050565b60008060008060008060c0878903121561217957600080fd5b600087013567ffffffffffffffff81111561219357600080fd5b61219f89828a0161203b565b965050602087013567ffffffffffffffff8111156121bc57600080fd5b6121c889828a0161203b565b955050604087013567ffffffffffffffff8111156121e557600080fd5b6121f189828a0161203b565b945050606061220289828a01611fd2565b935050608061221389828a0161214b565b92505060a087013567ffffffffffffffff81111561223057600080fd5b61223c89828a01611f5e565b9150509295509295509295565b60006020828403121561225b57600080fd5b60006122698482850161214b565b91505092915050565b600080600080600080600060e0888a03121561228d57600080fd5b600061229b8a828b0161214b565b975050602088013567ffffffffffffffff8111156122b857600080fd5b6122c48a828b0161203b565b965050604088013567ffffffffffffffff8111156122e157600080fd5b6122ed8a828b0161203b565b955050606088013567ffffffffffffffff81111561230a57600080fd5b6123168a828b0161203b565b94505060806123278a828b01611fd2565b93505060a06123388a828b0161214b565b92505060c088013567ffffffffffffffff81111561235557600080fd5b6123618a828b01611f5e565b91505092959891949750929550565b6000806040838503121561238357600080fd5b60006123918582860161214b565b92505060206123a28582860161214b565b9150509250929050565b60006123b883836125da565b905092915050565b60006123cc83836127cc565b905092915050565b60006123e0838361283d565b905092915050565b6123f181612ea8565b82525050565b61240081612e60565b82525050565b61240f81612e60565b82525050565b600061242082612dad565b61242a8185612e0b565b93508360208202850161243c85612d7d565b8060005b85811015612478578484038952815161245985826123ac565b945061246483612de4565b925060208a01995050600181019050612440565b50829750879550505050505092915050565b600061249582612db8565b61249f8185612e1c565b9350836020820285016124b185612d8d565b8060005b858110156124ed57848403895281516124ce85826123c0565b94506124d983612df1565b925060208a019950506001810190506124b5565b50829750879550505050505092915050565b600061250a82612dc3565b6125148185612e2d565b93508360208202850161252685612d9d565b8060005b85811015612562578484038952815161254385826123d4565b945061254e83612dfe565b925060208a0199505060018101905061252a565b50829750879550505050505092915050565b61257d81612e72565b82525050565b61258c81612e72565b82525050565b61259b81612eba565b82525050565b60006125ac82612dd9565b6125b68185612e4f565b93506125c6818560208601612eff565b6125cf81612f32565b840191505092915050565b60006125e582612dce565b6125ef8185612e3e565b93506125ff818560208601612eff565b61260881612f32565b840191505092915050565b600061261e82612dce565b6126288185612e4f565b9350612638818560208601612eff565b61264181612f32565b840191505092915050565b6000612659601d83612e4f565b91507f466f726d206465736372697074696f6e206973207265717572696564210000006000830152602082019050919050565b6000612699601383612e4f565b91507f466f726d20494420697320696e76616c696421000000000000000000000000006000830152602082019050919050565b60006126d9601783612e4f565b91507f466f726d207469746c65206973207265717572696564210000000000000000006000830152602082019050919050565b6000612719601a83612e4f565b91507f466f726d20656e642074696d65206973207265717572696564210000000000006000830152602082019050919050565b6000612759601483612e4f565b91507f556e617574686f72697a656420416363657373210000000000000000000000006000830152602082019050919050565b6000612799601d83612e4f565b91507f466f726d206e656564732061746c65617374206f6e65206669656c64210000006000830152602082019050919050565b60006080830160008301516127e46000860182612910565b50602083015184820360208601526127fc82826125da565b915050604083015184820360408601526128168282612415565b9150506060830151848203606086015261283082826125da565b9150508091505092915050565b6000610120830160008301516128566000860182612910565b506020830151848203602086015261286e82826125da565b9150506040830151848203604086015261288882826125da565b915050606083015161289d6060860182612910565b50608083015184820360808601526128b582826125da565b91505060a08301516128ca60a08601826123f7565b5060c08301516128dd60c0860182612574565b5060e08301516128f060e0860182612910565b50610100830151612905610100860182612910565b508091505092915050565b61291981612e9e565b82525050565b61292881612e9e565b82525050565b60006020820190508181036000830152612948818461248a565b905092915050565b6000602082019050818103600083015261296a81846124ff565b905092915050565b6000602082019050818103600083015261298c8184612613565b905092915050565b60006101208201905081810360008301526129af818c6125a1565b905081810360208301526129c3818b6125a1565b90506129d2604083018a61291f565b81810360608301526129e481896125a1565b90506129f360808301886123e8565b612a0060a0830187612583565b612a0d60c083018661291f565b81810360e0830152612a1f818561248a565b9050612a2f610100830184612592565b9a9950505050505050505050565b6000610120820190508181036000830152612a58818c6125a1565b90508181036020830152612a6c818b6125a1565b9050612a7b604083018a61291f565b8181036060830152612a8d81896125a1565b9050612a9c60808301886123e8565b612aa960a0830187612583565b612ab660c083018661291f565b81810360e0830152612ac8818561248a565b9050612ad861010083018461291f565b9a9950505050505050505050565b60006020820190508181036000830152612aff8161264c565b9050919050565b60006020820190508181036000830152612b1f8161268c565b9050919050565b60006020820190508181036000830152612b3f816126cc565b9050919050565b60006020820190508181036000830152612b5f8161270c565b9050919050565b60006020820190508181036000830152612b7f8161274c565b9050919050565b60006020820190508181036000830152612b9f8161278c565b9050919050565b6000602082019050612bbb600083018461291f565b92915050565b6000606082019050612bd6600083018661291f565b8181036020830152612be88185612613565b90508181036040830152612bfc8184612613565b9050949350505050565b600061012082019050612c1c600083018c61291f565b8181036020830152612c2e818b612613565b90508181036040830152612c42818a612613565b9050612c51606083018961291f565b8181036080830152612c638188612613565b9050612c7260a0830187612406565b612c7f60c0830186612583565b612c8c60e083018561291f565b612c9a61010083018461291f565b9a9950505050505050505050565b6000604051905081810181811067ffffffffffffffff82111715612ccb57600080fd5b8060405250919050565b600067ffffffffffffffff821115612cec57600080fd5b602082029050602081019050919050565b600067ffffffffffffffff821115612d1457600080fd5b602082029050602081019050919050565b600067ffffffffffffffff821115612d3c57600080fd5b601f19601f8301169050602081019050919050565b600067ffffffffffffffff821115612d6857600080fd5b601f19601f8301169050602081019050919050565b6000819050602082019050919050565b6000819050602082019050919050565b6000819050602082019050919050565b600081519050919050565b600081519050919050565b600081519050919050565b600081519050919050565b600081519050919050565b6000602082019050919050565b6000602082019050919050565b6000602082019050919050565b600082825260208201905092915050565b600082825260208201905092915050565b600082825260208201905092915050565b600082825260208201905092915050565b600082825260208201905092915050565b6000612e6b82612e7e565b9050919050565b60008115159050919050565b600073ffffffffffffffffffffffffffffffffffffffff82169050919050565b6000819050919050565b6000612eb382612ecc565b9050919050565b6000612ec582612e9e565b9050919050565b6000612ed782612ede565b9050919050565b6000612ee982612e7e565b9050919050565b82818337600083830152505050565b60005b83811015612f1d578082015181840152602081019050612f02565b83811115612f2c576000848401525b50505050565b6000601f19601f8301169050919050565b612f4c81612e72565b8114612f5757600080fd5b50565b612f6381612e9e565b8114612f6e57600080fd5b5056fea365627a7a72315820d81e8daf607fe453e4144c9114d7f1bb709ad910062498d1c1e6ea01d5ed0fe26c6578706572696d656e74616cf564736f6c63430005100040",
  "source": "pragma solidity ^0.5.0;\r\npragma experimental ABIEncoderV2;\r\n\r\ncontract FormsApp{\r\n\tstring public name;\r\n\r\n\t// Store forms...\r\n\tmapping(address=>uint)\tuserFormCount;\r\n\r\n\tuint public formsCount;\r\n\tmapping(uint => Form) public forms;\r\n\r\n\tstruct Form{\r\n\t\tuint id;\r\n\t\tstring title;\r\n\t\tstring description;\r\n\t\tuint timestamp;\r\n\t\tstring endTime;\r\n\t\taddress owner;\r\n\t\tbool allowResponse;\r\n\t\tuint fieldsCount;\r\n\t\tuint submissionsCount;\r\n\t}\r\n\r\n\t// Store fields\r\n\t\r\n\tmapping(uint => mapping(uint => Field)) public fields; // formId=>Field\r\n\r\n\tstruct Field{\r\n\t\tuint id;\r\n\t\tstring title;\r\n\t\tstring[] options;\r\n\t\tstring fieldType;\r\n\t}\r\n\t\r\n\tevent NewFormCreated(uint indexed id, string title, string description, uint timestamp, string endTime, address owner, bool allowResponse, uint fieldsCount, Field[] fields, uint submissionsCount);\r\n\tevent FormEdited(uint indexed id, string title, string description, uint timestamp, string endTime, address owner, bool allowResponse, uint fieldsCount, Field[] fields, uint submissionsCount);\r\n\r\n\tconstructor() public{\r\n\t\tname = \"FormsApp\";\r\n\t\t\r\n\t\tformsCount=0;\r\n\t}\r\n\r\n\tfunction createForm(string memory _title, string memory _description, string memory _endTime, bool _allowResponse, uint _fieldsCount, Field[] memory _fields) public {\r\n\t\trequire(bytes(_title).length>0, \"Form title is requried!\");\r\n\t\trequire(bytes(_description).length>0, \"Form description is requried!\");\r\n\t\trequire(bytes(_endTime).length>0, \"Form end time is requried!\");\r\n\t\trequire(_fields.length>0, \"Form needs atleast one field!\");\r\n\t\t\r\n\t\tformsCount++;\r\n\t\tuserFormCount[msg.sender]++;\r\n\t\t// Field[] fields;\r\n\t\t\r\n\t\tforms[formsCount] = Form(formsCount, _title, _description, block.timestamp, _endTime, msg.sender, _allowResponse,  _fieldsCount, 0);\r\n\r\n\t\tfor(uint i=1; i<=_fields.length; i++){\r\n\t\t\t// fields[formsCount][i] = _fields[i-1];\r\n\t\t\tstring[] memory options = new string[](_fields[i-1].options.length);\r\n\t\t\tfor(uint j=0; j<_fields[i-1].options.length; j++){\r\n\t\t\t\toptions[j]=_fields[i-1].options[j];\r\n\t\t\t}\r\n\t\t\tfields[formsCount][i] = Field(_fields[i-1].id, _fields[i-1].title, options, _fields[i-1].fieldType);\r\n\t\t}\r\n\r\n\t\temit NewFormCreated(formsCount, _title, _description, block.timestamp, _endTime, msg.sender, _allowResponse, _fieldsCount, _fields,  0);\r\n\t}\r\n\t\r\n\tfunction editForm(uint _formId, string memory _title, string memory _description, string memory _endTime, bool _allowResponse, uint _fieldsCount, Field[] memory _fields) public {\r\n\t\trequire(_formId>0, \"Form ID is invalid!\");\r\n\t\trequire(bytes(_title).length>0, \"Form title is requried!\");\r\n\t\trequire(bytes(_description).length>0, \"Form description is requried!\");\r\n\t\trequire(bytes(_endTime).length>0, \"Form end time is requried!\");\r\n\t\trequire(_fields.length>0, \"Form needs atleast one field!\");\r\n\r\n\t\tForm memory form = forms[_formId];\r\n\r\n\t\trequire(form.owner == msg.sender, \"Unauthorized Access!\");\r\n\t\t\r\n\t\tform = Form(_formId, _title, _description, block.timestamp, _endTime, msg.sender, _allowResponse,  _fieldsCount, form.submissionsCount);\r\n\r\n\t\tfor(uint i=1; i<=_fields.length; i++){\r\n\t\t\t// fields[formsCount][i] = _fields[i-1];\r\n\t\t\tstring[] memory options = new string[](_fields[i-1].options.length);\r\n\t\t\tfor(uint j=0; j<_fields[i-1].options.length; j++){\r\n\t\t\t\toptions[j]=_fields[i-1].options[j];\r\n\t\t\t}\r\n\t\t\tfields[_formId][i] = Field(_fields[i-1].id, _fields[i-1].title, options, _fields[i-1].fieldType);\r\n\t\t}\r\n\r\n\t\tforms[_formId] = form;\r\n\r\n\t\temit FormEdited(_formId, _title, _description, block.timestamp, _endTime, msg.sender, _allowResponse, _fieldsCount, _fields, form.submissionsCount);\r\n\t}\r\n\r\n\tfunction getForms() public view returns (Form[] memory){\r\n\t\tForm[] memory _forms = new Form[](userFormCount[msg.sender]);\r\n\t\tuint j=0;\r\n\t\tfor(uint i=1; i<=formsCount; i++){\r\n\t\t\tif(forms[i].owner==msg.sender){\r\n\t\t\t\t_forms[j]=forms[i];\r\n                j++;\r\n\t\t\t}\r\n\t\t}\r\n\r\n\t\treturn _forms;\r\n\t}\r\n\r\n\tfunction getFields(uint _formId) public view returns(Field[] memory){\r\n\t\tForm memory form = forms[_formId];\r\n\r\n\t\tuint _fieldsCount = form.fieldsCount;\r\n\t\tField[] memory _fields = new Field[](_fieldsCount);\r\n\t\t\r\n\t\tfor(uint i=1; i<=_fieldsCount; i++){\r\n\t\t\t\t_fields[i-1]=fields[form.id][i];\r\n\t\t}\r\n\r\n\t\treturn _fields;\r\n\t}\r\n}",
  "sourcePath": "D:\\Engineering\\Dev\\Blockchain Development\\Projects\\FormsApp\\src\\contracts\\FormsApp.sol",
  "compiler": {
    "name": "solc",
    "version": "0.5.16+commit.9c3226ce.Emscripten.clang"
  },
  "schemaVersion": "3.4.3",
  "updatedAt": "2022-03-24T17:20:58.257Z",
  "networkType": "ethereum",
  "devdoc": {
    "methods": {}
  },
  "userdoc": {
    "methods": {}
  }
}