{
  "contractName": "FormsApp",
  "abi": [
    {
      "inputs": [],
      "payable": false,
      "stateMutability": "nonpayable",
      "type": "constructor"
    },
    {
      "anonymous": false,
      "inputs": [
        {
          "indexed": true,
          "internalType": "uint256",
          "name": "id",
          "type": "uint256"
        },
        {
          "indexed": false,
          "internalType": "string",
          "name": "title",
          "type": "string"
        },
        {
          "indexed": false,
          "internalType": "string",
          "name": "description",
          "type": "string"
        },
        {
          "indexed": false,
          "internalType": "uint256",
          "name": "timestamp",
          "type": "uint256"
        },
        {
          "indexed": false,
          "internalType": "string",
          "name": "endTime",
          "type": "string"
        },
        {
          "indexed": false,
          "internalType": "address",
          "name": "owner",
          "type": "address"
        },
        {
          "indexed": false,
          "internalType": "bool",
          "name": "allowResponse",
          "type": "bool"
        },
        {
          "indexed": false,
          "internalType": "uint256",
          "name": "fieldsCount",
          "type": "uint256"
        },
        {
          "components": [
            {
              "internalType": "uint256",
              "name": "id",
              "type": "uint256"
            },
            {
              "internalType": "string",
              "name": "title",
              "type": "string"
            },
            {
              "internalType": "string[]",
              "name": "options",
              "type": "string[]"
            },
            {
              "internalType": "string",
              "name": "fieldType",
              "type": "string"
            }
          ],
          "indexed": false,
          "internalType": "struct FormsApp.Field[]",
          "name": "fields",
          "type": "tuple[]"
        },
        {
          "indexed": false,
          "internalType": "uint256",
          "name": "submissionsCount",
          "type": "uint256"
        }
      ],
      "name": "NewFormCreated",
      "type": "event"
    },
    {
      "constant": true,
      "inputs": [
        {
          "internalType": "uint256",
          "name": "",
          "type": "uint256"
        },
        {
          "internalType": "uint256",
          "name": "",
          "type": "uint256"
        }
      ],
      "name": "fields",
      "outputs": [
        {
          "internalType": "uint256",
          "name": "id",
          "type": "uint256"
        },
        {
          "internalType": "string",
          "name": "title",
          "type": "string"
        },
        {
          "internalType": "string",
          "name": "fieldType",
          "type": "string"
        }
      ],
      "payable": false,
      "stateMutability": "view",
      "type": "function"
    },
    {
      "constant": true,
      "inputs": [
        {
          "internalType": "uint256",
          "name": "",
          "type": "uint256"
        }
      ],
      "name": "forms",
      "outputs": [
        {
          "internalType": "uint256",
          "name": "id",
          "type": "uint256"
        },
        {
          "internalType": "string",
          "name": "title",
          "type": "string"
        },
        {
          "internalType": "string",
          "name": "description",
          "type": "string"
        },
        {
          "internalType": "uint256",
          "name": "timestamp",
          "type": "uint256"
        },
        {
          "internalType": "string",
          "name": "endTime",
          "type": "string"
        },
        {
          "internalType": "address",
          "name": "owner",
          "type": "address"
        },
        {
          "internalType": "bool",
          "name": "allowResponse",
          "type": "bool"
        },
        {
          "internalType": "uint256",
          "name": "fieldsCount",
          "type": "uint256"
        },
        {
          "internalType": "uint256",
          "name": "submissionsCount",
          "type": "uint256"
        }
      ],
      "payable": false,
      "stateMutability": "view",
      "type": "function"
    },
    {
      "constant": true,
      "inputs": [],
      "name": "formsCount",
      "outputs": [
        {
          "internalType": "uint256",
          "name": "",
          "type": "uint256"
        }
      ],
      "payable": false,
      "stateMutability": "view",
      "type": "function"
    },
    {
      "constant": true,
      "inputs": [],
      "name": "name",
      "outputs": [
        {
          "internalType": "string",
          "name": "",
          "type": "string"
        }
      ],
      "payable": false,
      "stateMutability": "view",
      "type": "function"
    },
    {
      "constant": false,
      "inputs": [
        {
          "internalType": "string",
          "name": "_title",
          "type": "string"
        },
        {
          "internalType": "string",
          "name": "_description",
          "type": "string"
        },
        {
          "internalType": "string",
          "name": "_endTime",
          "type": "string"
        },
        {
          "internalType": "bool",
          "name": "_allowResponse",
          "type": "bool"
        },
        {
          "internalType": "uint256",
          "name": "_fieldsCount",
          "type": "uint256"
        },
        {
          "components": [
            {
              "internalType": "uint256",
              "name": "id",
              "type": "uint256"
            },
            {
              "internalType": "string",
              "name": "title",
              "type": "string"
            },
            {
              "internalType": "string[]",
              "name": "options",
              "type": "string[]"
            },
            {
              "internalType": "string",
              "name": "fieldType",
              "type": "string"
            }
          ],
          "internalType": "struct FormsApp.Field[]",
          "name": "_fields",
          "type": "tuple[]"
        }
      ],
      "name": "createForm",
      "outputs": [],
      "payable": false,
      "stateMutability": "nonpayable",
      "type": "function"
    },
    {
      "constant": true,
      "inputs": [],
      "name": "getForms",
      "outputs": [
        {
          "components": [
            {
              "internalType": "uint256",
              "name": "id",
              "type": "uint256"
            },
            {
              "internalType": "string",
              "name": "title",
              "type": "string"
            },
            {
              "internalType": "string",
              "name": "description",
              "type": "string"
            },
            {
              "internalType": "uint256",
              "name": "timestamp",
              "type": "uint256"
            },
            {
              "internalType": "string",
              "name": "endTime",
              "type": "string"
            },
            {
              "internalType": "address",
              "name": "owner",
              "type": "address"
            },
            {
              "internalType": "bool",
              "name": "allowResponse",
              "type": "bool"
            },
            {
              "internalType": "uint256",
              "name": "fieldsCount",
              "type": "uint256"
            },
            {
              "internalType": "uint256",
              "name": "submissionsCount",
              "type": "uint256"
            }
          ],
          "internalType": "struct FormsApp.Form[]",
          "name": "",
          "type": "tuple[]"
        }
      ],
      "payable": false,
      "stateMutability": "view",
      "type": "function"
    }
  ],
  "bytecode": "0x60806040523480156200001157600080fd5b506040518060400160405280600881526020017f466f726d73417070000000000000000000000000000000000000000000000000815250600090805190602001906200005f9291906200006e565b5060006002819055506200011d565b828054600181600116156101000203166002900490600052602060002090601f016020900481019282601f10620000b157805160ff1916838001178555620000e2565b82800160010185558215620000e2579182015b82811115620000e1578251825591602001919060010190620000c4565b5b509050620000f19190620000f5565b5090565b6200011a91905b8082111562000116576000816000905550600101620000fc565b5090565b90565b611e8a806200012d6000396000f3fe608060405234801561001057600080fd5b50600436106100625760003560e01c806306fdde031461006757806318c864e3146100855780638c10e904146100bd578063c56ad1a5146100d9578063c5e6e689146100f7578063e19b4fae14610115575b600080fd5b61006f610147565b60405161007c9190611931565b60405180910390f35b61009f600480360361009a91908101906113a8565b6101e5565b6040516100b499989796959493929190611adc565b60405180910390f35b6100d760048036036100d291908101906112bf565b610428565b005b6100e161092d565b6040516100ee9190611a7c565b60405180910390f35b6100ff610933565b60405161010c919061190f565b60405180910390f35b61012f600480360361012a91908101906113d1565b610d05565b60405161013e93929190611a97565b60405180910390f35b60008054600181600116156101000203166002900480601f0160208091040260200160405190810160405280929190818152602001828054600181600116156101000203166002900480156101dd5780601f106101b2576101008083540402835291602001916101dd565b820191906000526020600020905b8154815290600101906020018083116101c057829003601f168201915b505050505081565b6003602052806000526040600020600091509050806000015490806001018054600181600116156101000203166002900480601f0160208091040260200160405190810160405280929190818152602001828054600181600116156101000203166002900480156102975780601f1061026c57610100808354040283529160200191610297565b820191906000526020600020905b81548152906001019060200180831161027a57829003601f168201915b505050505090806002018054600181600116156101000203166002900480601f0160208091040260200160405190810160405280929190818152602001828054600181600116156101000203166002900480156103355780601f1061030a57610100808354040283529160200191610335565b820191906000526020600020905b81548152906001019060200180831161031857829003601f168201915b505050505090806003015490806004018054600181600116156101000203166002900480601f0160208091040260200160405190810160405280929190818152602001828054600181600116156101000203166002900480156103d95780601f106103ae576101008083540402835291602001916103d9565b820191906000526020600020905b8154815290600101906020018083116103bc57829003601f168201915b5050505050908060050160009054906101000a900473ffffffffffffffffffffffffffffffffffffffff16908060050160149054906101000a900460ff16908060060154908060070154905089565b600086511161046c576040517f08c379a000000000000000000000000000000000000000000000000000000000815260040161046390611a1c565b60405180910390fd5b60008551116104b0576040517f08c379a00000000000000000000000000000000000000000000000000000000081526004016104a7906119fc565b60405180910390fd5b60008451116104f4576040517f08c379a00000000000000000000000000000000000000000000000000000000081526004016104eb90611a3c565b60405180910390fd5b6000815111610538576040517f08c379a000000000000000000000000000000000000000000000000000000000815260040161052f90611a5c565b60405180910390fd5b600260008154809291906001019190505550600160003373ffffffffffffffffffffffffffffffffffffffff1673ffffffffffffffffffffffffffffffffffffffff1681526020019081526020016000206000815480929190600101919050555060405180610120016040528060025481526020018781526020018681526020014281526020018581526020013373ffffffffffffffffffffffffffffffffffffffff1681526020018415158152602001838152602001600081525060036000600254815260200190815260200160002060008201518160000155602082015181600101908051906020019061062f929190610e6c565b50604082015181600201908051906020019061064c929190610e6c565b50606082015181600301556080820151816004019080519060200190610673929190610e6c565b5060a08201518160050160006101000a81548173ffffffffffffffffffffffffffffffffffffffff021916908373ffffffffffffffffffffffffffffffffffffffff16021790555060c08201518160050160146101000a81548160ff02191690831515021790555060e0820151816006015561010082015181600701559050506000600190505b815181116108d957606082600183038151811061071357fe5b6020026020010151604001515160405190808252806020026020018201604052801561075357816020015b606081526020019060019003908161073e5790505b50905060008090505b83600184038151811061076b57fe5b602002602001015160400151518110156107d15783600184038151811061078e57fe5b60200260200101516040015181815181106107a557fe5b60200260200101518282815181106107b957fe5b6020026020010181905250808060010191505061075c565b5060405180608001604052808460018503815181106107ec57fe5b602002602001015160000151815260200184600185038151811061080c57fe5b602002602001015160200151815260200182815260200184600185038151811061083257fe5b602002602001015160600151815250600460006002548152602001908152602001600020600084815260200190815260200160002060008201518160000155602082015181600101908051906020019061088d929190610e6c565b5060408201518160020190805190602001906108aa929190610eec565b5060608201518160030190805190602001906108c7929190610e6c565b509050505080806001019150506106fa565b506002547f067031859f298b279580b64ec4be5b29ced6838d43dfafb25562734c797a5d138787428833898989600060405161091d99989796959493929190611953565b60405180910390a2505050505050565b60025481565b606080600160003373ffffffffffffffffffffffffffffffffffffffff1673ffffffffffffffffffffffffffffffffffffffff168152602001908152602001600020546040519080825280602002602001820160405280156109af57816020015b61099c610f4c565b8152602001906001900390816109945790505b50905060008090506000600190505b6002548111610cfc573373ffffffffffffffffffffffffffffffffffffffff166003600083815260200190815260200160002060050160009054906101000a900473ffffffffffffffffffffffffffffffffffffffff1673ffffffffffffffffffffffffffffffffffffffff161415610cef57600360008281526020019081526020016000206040518061012001604052908160008201548152602001600182018054600181600116156101000203166002900480601f016020809104026020016040519081016040528092919081815260200182805460018160011615610100020316600290048015610af35780601f10610ac857610100808354040283529160200191610af3565b820191906000526020600020905b815481529060010190602001808311610ad657829003601f168201915b50505050508152602001600282018054600181600116156101000203166002900480601f016020809104026020016040519081016040528092919081815260200182805460018160011615610100020316600290048015610b955780601f10610b6a57610100808354040283529160200191610b95565b820191906000526020600020905b815481529060010190602001808311610b7857829003601f168201915b5050505050815260200160038201548152602001600482018054600181600116156101000203166002900480601f016020809104026020016040519081016040528092919081815260200182805460018160011615610100020316600290048015610c415780601f10610c1657610100808354040283529160200191610c41565b820191906000526020600020905b815481529060010190602001808311610c2457829003601f168201915b505050505081526020016005820160009054906101000a900473ffffffffffffffffffffffffffffffffffffffff1673ffffffffffffffffffffffffffffffffffffffff1673ffffffffffffffffffffffffffffffffffffffff1681526020016005820160149054906101000a900460ff1615151515815260200160068201548152602001600782015481525050838381518110610cdb57fe5b602002602001018190525081806001019250505b80806001019150506109be565b50819250505090565b600460205281600052604060002060205280600052604060002060009150915050806000015490806001018054600181600116156101000203166002900480601f016020809104026020016040519081016040528092919081815260200182805460018160011615610100020316600290048015610dc45780601f10610d9957610100808354040283529160200191610dc4565b820191906000526020600020905b815481529060010190602001808311610da757829003601f168201915b505050505090806003018054600181600116156101000203166002900480601f016020809104026020016040519081016040528092919081815260200182805460018160011615610100020316600290048015610e625780601f10610e3757610100808354040283529160200191610e62565b820191906000526020600020905b815481529060010190602001808311610e4557829003601f168201915b5050505050905083565b828054600181600116156101000203166002900490600052602060002090601f016020900481019282601f10610ead57805160ff1916838001178555610edb565b82800160010185558215610edb579182015b82811115610eda578251825591602001919060010190610ebf565b5b509050610ee89190610fb0565b5090565b828054828255906000526020600020908101928215610f3b579160200282015b82811115610f3a578251829080519060200190610f2a929190610e6c565b5091602001919060010190610f0c565b5b509050610f489190610fd5565b5090565b6040518061012001604052806000815260200160608152602001606081526020016000815260200160608152602001600073ffffffffffffffffffffffffffffffffffffffff16815260200160001515815260200160008152602001600081525090565b610fd291905b80821115610fce576000816000905550600101610fb6565b5090565b90565b610ffe91905b80821115610ffa5760008181610ff19190611001565b50600101610fdb565b5090565b90565b50805460018160011615610100020316600290046000825580601f106110275750611046565b601f0160209004906000526020600020908101906110459190610fb0565b5b50565b600082601f83011261105a57600080fd5b813561106d61106882611bab565b611b7e565b9150818183526020840193506020810190508360005b838110156110b357813586016110998882611146565b845260208401935060208301925050600181019050611083565b5050505092915050565b600082601f8301126110ce57600080fd5b81356110e16110dc82611bd3565b611b7e565b9150818183526020840193506020810190508360005b83811015611127578135860161110d88826111ee565b8452602084019350602083019250506001810190506110f7565b5050505092915050565b60008135905061114081611e19565b92915050565b600082601f83011261115757600080fd5b813561116a61116582611bfb565b611b7e565b9150808252602083016020830185838301111561118657600080fd5b611191838284611dc6565b50505092915050565b600082601f8301126111ab57600080fd5b81356111be6111b982611c27565b611b7e565b915080825260208301602083018583830111156111da57600080fd5b6111e5838284611dc6565b50505092915050565b60006080828403121561120057600080fd5b61120a6080611b7e565b9050600061121a848285016112aa565b600083015250602082013567ffffffffffffffff81111561123a57600080fd5b61124684828501611146565b602083015250604082013567ffffffffffffffff81111561126657600080fd5b61127284828501611049565b604083015250606082013567ffffffffffffffff81111561129257600080fd5b61129e84828501611146565b60608301525092915050565b6000813590506112b981611e30565b92915050565b60008060008060008060c087890312156112d857600080fd5b600087013567ffffffffffffffff8111156112f257600080fd5b6112fe89828a0161119a565b965050602087013567ffffffffffffffff81111561131b57600080fd5b61132789828a0161119a565b955050604087013567ffffffffffffffff81111561134457600080fd5b61135089828a0161119a565b945050606061136189828a01611131565b935050608061137289828a016112aa565b92505060a087013567ffffffffffffffff81111561138f57600080fd5b61139b89828a016110bd565b9150509295509295509295565b6000602082840312156113ba57600080fd5b60006113c8848285016112aa565b91505092915050565b600080604083850312156113e457600080fd5b60006113f2858286016112aa565b9250506020611403858286016112aa565b9150509250929050565b6000611419838361163b565b905092915050565b600061142d83836117ad565b905092915050565b6000611441838361181e565b905092915050565b61145281611d7e565b82525050565b61146181611d36565b82525050565b61147081611d36565b82525050565b600061148182611c83565b61148b8185611ce1565b93508360208202850161149d85611c53565b8060005b858110156114d957848403895281516114ba858261140d565b94506114c583611cba565b925060208a019950506001810190506114a1565b50829750879550505050505092915050565b60006114f682611c8e565b6115008185611cf2565b93508360208202850161151285611c63565b8060005b8581101561154e578484038952815161152f8582611421565b945061153a83611cc7565b925060208a01995050600181019050611516565b50829750879550505050505092915050565b600061156b82611c99565b6115758185611d03565b93508360208202850161158785611c73565b8060005b858110156115c357848403895281516115a48582611435565b94506115af83611cd4565b925060208a0199505060018101905061158b565b50829750879550505050505092915050565b6115de81611d48565b82525050565b6115ed81611d48565b82525050565b6115fc81611d90565b82525050565b600061160d82611caf565b6116178185611d25565b9350611627818560208601611dd5565b61163081611e08565b840191505092915050565b600061164682611ca4565b6116508185611d14565b9350611660818560208601611dd5565b61166981611e08565b840191505092915050565b600061167f82611ca4565b6116898185611d25565b9350611699818560208601611dd5565b6116a281611e08565b840191505092915050565b60006116ba601d83611d25565b91507f466f726d206465736372697074696f6e206973207265717572696564210000006000830152602082019050919050565b60006116fa601783611d25565b91507f466f726d207469746c65206973207265717572696564210000000000000000006000830152602082019050919050565b600061173a601a83611d25565b91507f466f726d20656e642074696d65206973207265717572696564210000000000006000830152602082019050919050565b600061177a601d83611d25565b91507f466f726d206e656564732061746c65617374206f6e65206669656c64210000006000830152602082019050919050565b60006080830160008301516117c560008601826118f1565b50602083015184820360208601526117dd828261163b565b915050604083015184820360408601526117f78282611476565b91505060608301518482036060860152611811828261163b565b9150508091505092915050565b60006101208301600083015161183760008601826118f1565b506020830151848203602086015261184f828261163b565b91505060408301518482036040860152611869828261163b565b915050606083015161187e60608601826118f1565b5060808301518482036080860152611896828261163b565b91505060a08301516118ab60a0860182611458565b5060c08301516118be60c08601826115d5565b5060e08301516118d160e08601826118f1565b506101008301516118e66101008601826118f1565b508091505092915050565b6118fa81611d74565b82525050565b61190981611d74565b82525050565b600060208201905081810360008301526119298184611560565b905092915050565b6000602082019050818103600083015261194b8184611674565b905092915050565b600061012082019050818103600083015261196e818c611602565b90508181036020830152611982818b611602565b9050611991604083018a611900565b81810360608301526119a38189611602565b90506119b26080830188611449565b6119bf60a08301876115e4565b6119cc60c0830186611900565b81810360e08301526119de81856114eb565b90506119ee6101008301846115f3565b9a9950505050505050505050565b60006020820190508181036000830152611a15816116ad565b9050919050565b60006020820190508181036000830152611a35816116ed565b9050919050565b60006020820190508181036000830152611a558161172d565b9050919050565b60006020820190508181036000830152611a758161176d565b9050919050565b6000602082019050611a916000830184611900565b92915050565b6000606082019050611aac6000830186611900565b8181036020830152611abe8185611674565b90508181036040830152611ad28184611674565b9050949350505050565b600061012082019050611af2600083018c611900565b8181036020830152611b04818b611674565b90508181036040830152611b18818a611674565b9050611b276060830189611900565b8181036080830152611b398188611674565b9050611b4860a0830187611467565b611b5560c08301866115e4565b611b6260e0830185611900565b611b70610100830184611900565b9a9950505050505050505050565b6000604051905081810181811067ffffffffffffffff82111715611ba157600080fd5b8060405250919050565b600067ffffffffffffffff821115611bc257600080fd5b602082029050602081019050919050565b600067ffffffffffffffff821115611bea57600080fd5b602082029050602081019050919050565b600067ffffffffffffffff821115611c1257600080fd5b601f19601f8301169050602081019050919050565b600067ffffffffffffffff821115611c3e57600080fd5b601f19601f8301169050602081019050919050565b6000819050602082019050919050565b6000819050602082019050919050565b6000819050602082019050919050565b600081519050919050565b600081519050919050565b600081519050919050565b600081519050919050565b600081519050919050565b6000602082019050919050565b6000602082019050919050565b6000602082019050919050565b600082825260208201905092915050565b600082825260208201905092915050565b600082825260208201905092915050565b600082825260208201905092915050565b600082825260208201905092915050565b6000611d4182611d54565b9050919050565b60008115159050919050565b600073ffffffffffffffffffffffffffffffffffffffff82169050919050565b6000819050919050565b6000611d8982611da2565b9050919050565b6000611d9b82611d74565b9050919050565b6000611dad82611db4565b9050919050565b6000611dbf82611d54565b9050919050565b82818337600083830152505050565b60005b83811015611df3578082015181840152602081019050611dd8565b83811115611e02576000848401525b50505050565b6000601f19601f8301169050919050565b611e2281611d48565b8114611e2d57600080fd5b50565b611e3981611d74565b8114611e4457600080fd5b5056fea365627a7a72315820a174511c34cfe6ca6d5305149ab701a9fa9586d707238184d71e4e298791dbd66c6578706572696d656e74616cf564736f6c63430005100040",
  "source": "pragma solidity ^0.5.0;\r\npragma experimental ABIEncoderV2;\r\n\r\ncontract FormsApp{\r\n\tstring public name;\r\n\r\n\t// Store forms...\r\n\tmapping(address=>uint)\tuserFormCount;\r\n\r\n\tuint public formsCount;\r\n\tmapping(uint => Form) public forms;\r\n\r\n\tstruct Form{\r\n\t\tuint id;\r\n\t\tstring title;\r\n\t\tstring description;\r\n\t\tuint timestamp;\r\n\t\tstring endTime;\r\n\t\taddress owner;\r\n\t\tbool allowResponse;\r\n\t\tuint fieldsCount;\r\n\t\tuint submissionsCount;\r\n\t}\r\n\r\n\t// Store fields\r\n\t\r\n\tmapping(uint => mapping(uint => Field)) public fields; // formId=>Field\r\n\r\n\tstruct Field{\r\n\t\tuint id;\r\n\t\tstring title;\r\n\t\tstring[] options;\r\n\t\tstring fieldType;\r\n\t}\r\n\t\r\n\tevent NewFormCreated(uint indexed id, string title, string description, uint timestamp, string endTime, address owner, bool allowResponse, uint fieldsCount, Field[] fields, uint submissionsCount);\r\n\r\n\tconstructor() public{\r\n\t\tname = \"FormsApp\";\r\n\t\t\r\n\t\tformsCount=0;\r\n\t}\r\n\r\n\tfunction createForm(string memory _title, string memory _description, string memory _endTime, bool _allowResponse, uint _fieldsCount, Field[] memory _fields) public {\r\n\t\trequire(bytes(_title).length>0, \"Form title is requried!\");\r\n\t\trequire(bytes(_description).length>0, \"Form description is requried!\");\r\n\t\trequire(bytes(_endTime).length>0, \"Form end time is requried!\");\r\n\t\trequire(_fields.length>0, \"Form needs atleast one field!\");\r\n\t\t\r\n\t\tformsCount++;\r\n\t\tuserFormCount[msg.sender]++;\r\n\t\t// Field[] fields;\r\n\t\t\r\n\t\tforms[formsCount] = Form(formsCount, _title, _description, block.timestamp, _endTime, msg.sender, _allowResponse,  _fieldsCount, 0);\r\n\r\n\t\tfor(uint i=1; i<=_fields.length; i++){\r\n\t\t\t// fields[formsCount][i] = _fields[i-1];\r\n\t\t\tstring[] memory options = new string[](_fields[i-1].options.length);\r\n\t\t\tfor(uint j=0; j<_fields[i-1].options.length; j++){\r\n\t\t\t\toptions[j]=_fields[i-1].options[j];\r\n\t\t\t}\r\n\t\t\tfields[formsCount][i] = Field(_fields[i-1].id, _fields[i-1].title, options, _fields[i-1].fieldType);\r\n\t\t}\r\n\r\n\t\temit NewFormCreated(formsCount, _title, _description, block.timestamp, _endTime, msg.sender, _allowResponse, _fieldsCount, _fields,  0);\r\n\t}\r\n\r\n\tfunction getForms() public view returns (Form[] memory){\r\n\t\tForm[] memory _forms = new Form[](userFormCount[msg.sender]);\r\n\t\tuint j=0;\r\n\t\tfor(uint i=1; i<=formsCount; i++){\r\n\t\t\tif(forms[i].owner==msg.sender){\r\n\t\t\t\t_forms[j]=forms[i];\r\n                j++;\r\n\t\t\t}\r\n\t\t}\r\n\r\n\t\treturn _forms;\r\n\t}\r\n}",
  "sourcePath": "D:\\Engineering\\Dev\\Blockchain Development\\Projects\\FormsApp\\src\\contracts\\FormsApp.sol",
  "compiler": {
    "name": "solc",
    "version": "0.5.16+commit.9c3226ce.Emscripten.clang"
  },
  "schemaVersion": "3.4.3",
  "updatedAt": "2022-03-19T07:06:18.683Z",
  "networkType": "ethereum",
  "devdoc": {
    "methods": {}
  },
  "userdoc": {
    "methods": {}
  }
}